{
	"contracts/Classroom.sol": {
		"Classroom": {
			"abi": [
				{
					"inputs": [
						{
							"internalType": "string",
							"name": "_name",
							"type": "string"
						},
						{
							"internalType": "uint256",
							"name": "_age",
							"type": "uint256"
						},
						{
							"internalType": "uint256",
							"name": "_finalMark",
							"type": "uint256"
						}
					],
					"name": "addNewStudent",
					"outputs": [],
					"stateMutability": "nonpayable",
					"type": "function"
				},
				{
					"inputs": [
						{
							"internalType": "uint256",
							"name": "_indexStudent",
							"type": "uint256"
						}
					],
					"name": "getStudent",
					"outputs": [
						{
							"components": [
								{
									"internalType": "string",
									"name": "name",
									"type": "string"
								},
								{
									"internalType": "uint256",
									"name": "age",
									"type": "uint256"
								},
								{
									"internalType": "uint256",
									"name": "finalMark",
									"type": "uint256"
								}
							],
							"internalType": "struct Classroom.Student",
							"name": "",
							"type": "tuple"
						}
					],
					"stateMutability": "view",
					"type": "function"
				},
				{
					"inputs": [
						{
							"internalType": "uint256",
							"name": "",
							"type": "uint256"
						}
					],
					"name": "students",
					"outputs": [
						{
							"internalType": "string",
							"name": "name",
							"type": "string"
						},
						{
							"internalType": "uint256",
							"name": "age",
							"type": "uint256"
						},
						{
							"internalType": "uint256",
							"name": "finalMark",
							"type": "uint256"
						}
					],
					"stateMutability": "view",
					"type": "function"
				}
			],
			"devdoc": {
				"kind": "dev",
				"methods": {},
				"version": 1
			},
			"evm": {
				"assembly": "    /* \"contracts/Classroom.sol\":57:489  contract Classroom{... */\n  mstore(0x40, 0x80)\n  callvalue\n  dup1\n  iszero\n  tag_1\n  jumpi\n  0x00\n  dup1\n  revert\ntag_1:\n  pop\n  dataSize(sub_0)\n  dup1\n  dataOffset(sub_0)\n  0x00\n  codecopy\n  0x00\n  return\nstop\n\nsub_0: assembly {\n        /* \"contracts/Classroom.sol\":57:489  contract Classroom{... */\n      mstore(0x40, 0x80)\n      callvalue\n      dup1\n      iszero\n      tag_1\n      jumpi\n      0x00\n      dup1\n      revert\n    tag_1:\n      pop\n      jumpi(tag_2, lt(calldatasize, 0x04))\n      shr(0xe0, calldataload(0x00))\n      dup1\n      0x06ead22e\n      eq\n      tag_3\n      jumpi\n      dup1\n      0x642f9163\n      eq\n      tag_4\n      jumpi\n      dup1\n      0x94036fd5\n      eq\n      tag_5\n      jumpi\n    tag_2:\n      0x00\n      dup1\n      revert\n        /* \"contracts/Classroom.sol\":178:203  Student[] public students */\n    tag_3:\n      tag_6\n      0x04\n      dup1\n      calldatasize\n      sub\n      dup2\n      add\n      swap1\n      tag_7\n      swap2\n      swap1\n      tag_8\n      jump\t// in\n    tag_7:\n      tag_9\n      jump\t// in\n    tag_6:\n      mload(0x40)\n      tag_10\n      swap4\n      swap3\n      swap2\n      swap1\n      tag_11\n      jump\t// in\n    tag_10:\n      mload(0x40)\n      dup1\n      swap2\n      sub\n      swap1\n      return\n        /* \"contracts/Classroom.sol\":361:487  function getStudent(uint256 _indexStudent) public view returns (Student memory){... */\n    tag_4:\n      tag_12\n      0x04\n      dup1\n      calldatasize\n      sub\n      dup2\n      add\n      swap1\n      tag_13\n      swap2\n      swap1\n      tag_8\n      jump\t// in\n    tag_13:\n      tag_14\n      jump\t// in\n    tag_12:\n      mload(0x40)\n      tag_15\n      swap2\n      swap1\n      tag_16\n      jump\t// in\n    tag_15:\n      mload(0x40)\n      dup1\n      swap2\n      sub\n      swap1\n      return\n        /* \"contracts/Classroom.sol\":210:355  function addNewStudent(string memory _name,uint256 _age,uint256 _finalMark) public {... */\n    tag_5:\n      tag_17\n      0x04\n      dup1\n      calldatasize\n      sub\n      dup2\n      add\n      swap1\n      tag_18\n      swap2\n      swap1\n      tag_19\n      jump\t// in\n    tag_18:\n      tag_20\n      jump\t// in\n    tag_17:\n      stop\n        /* \"contracts/Classroom.sol\":178:203  Student[] public students */\n    tag_9:\n      0x00\n      dup2\n      dup2\n      sload\n      dup2\n      lt\n      tag_21\n      jumpi\n      0x00\n      dup1\n      revert\n    tag_21:\n      swap1\n      0x00\n      mstore\n      keccak256(0x00, 0x20)\n      swap1\n      0x03\n      mul\n      add\n      0x00\n      swap2\n      pop\n      swap1\n      pop\n      dup1\n      0x00\n      add\n      dup1\n      sload\n      tag_23\n      swap1\n      tag_24\n      jump\t// in\n    tag_23:\n      dup1\n      0x1f\n      add\n      0x20\n      dup1\n      swap2\n      div\n      mul\n      0x20\n      add\n      mload(0x40)\n      swap1\n      dup2\n      add\n      0x40\n      mstore\n      dup1\n      swap3\n      swap2\n      swap1\n      dup2\n      dup2\n      mstore\n      0x20\n      add\n      dup3\n      dup1\n      sload\n      tag_25\n      swap1\n      tag_24\n      jump\t// in\n    tag_25:\n      dup1\n      iszero\n      tag_26\n      jumpi\n      dup1\n      0x1f\n      lt\n      tag_27\n      jumpi\n      0x0100\n      dup1\n      dup4\n      sload\n      div\n      mul\n      dup4\n      mstore\n      swap2\n      0x20\n      add\n      swap2\n      jump(tag_26)\n    tag_27:\n      dup3\n      add\n      swap2\n      swap1\n      0x00\n      mstore\n      keccak256(0x00, 0x20)\n      swap1\n    tag_28:\n      dup2\n      sload\n      dup2\n      mstore\n      swap1\n      0x01\n      add\n      swap1\n      0x20\n      add\n      dup1\n      dup4\n      gt\n      tag_28\n      jumpi\n      dup3\n      swap1\n      sub\n      0x1f\n      and\n      dup3\n      add\n      swap2\n    tag_26:\n      pop\n      pop\n      pop\n      pop\n      pop\n      swap1\n      dup1\n      0x01\n      add\n      sload\n      swap1\n      dup1\n      0x02\n      add\n      sload\n      swap1\n      pop\n      dup4\n      jump\t// out\n        /* \"contracts/Classroom.sol\":361:487  function getStudent(uint256 _indexStudent) public view returns (Student memory){... */\n    tag_14:\n        /* \"contracts/Classroom.sol\":425:439  Student memory */\n      tag_29\n      tag_30\n      jump\t// in\n    tag_29:\n        /* \"contracts/Classroom.sol\":457:465  students */\n      0x00\n        /* \"contracts/Classroom.sol\":466:479  _indexStudent */\n      dup3\n        /* \"contracts/Classroom.sol\":457:480  students[_indexStudent] */\n      dup2\n      sload\n      dup2\n      lt\n      tag_32\n      jumpi\n      tag_33\n      tag_34\n      jump\t// in\n    tag_33:\n    tag_32:\n      swap1\n      0x00\n      mstore\n      keccak256(0x00, 0x20)\n      swap1\n      0x03\n      mul\n      add\n        /* \"contracts/Classroom.sol\":449:480  return  students[_indexStudent] */\n      mload(0x40)\n      dup1\n      0x60\n      add\n      0x40\n      mstore\n      swap1\n      dup2\n      0x00\n      dup3\n      add\n      dup1\n      sload\n      tag_36\n      swap1\n      tag_24\n      jump\t// in\n    tag_36:\n      dup1\n      0x1f\n      add\n      0x20\n      dup1\n      swap2\n      div\n      mul\n      0x20\n      add\n      mload(0x40)\n      swap1\n      dup2\n      add\n      0x40\n      mstore\n      dup1\n      swap3\n      swap2\n      swap1\n      dup2\n      dup2\n      mstore\n      0x20\n      add\n      dup3\n      dup1\n      sload\n      tag_37\n      swap1\n      tag_24\n      jump\t// in\n    tag_37:\n      dup1\n      iszero\n      tag_38\n      jumpi\n      dup1\n      0x1f\n      lt\n      tag_39\n      jumpi\n      0x0100\n      dup1\n      dup4\n      sload\n      div\n      mul\n      dup4\n      mstore\n      swap2\n      0x20\n      add\n      swap2\n      jump(tag_38)\n    tag_39:\n      dup3\n      add\n      swap2\n      swap1\n      0x00\n      mstore\n      keccak256(0x00, 0x20)\n      swap1\n    tag_40:\n      dup2\n      sload\n      dup2\n      mstore\n      swap1\n      0x01\n      add\n      swap1\n      0x20\n      add\n      dup1\n      dup4\n      gt\n      tag_40\n      jumpi\n      dup3\n      swap1\n      sub\n      0x1f\n      and\n      dup3\n      add\n      swap2\n    tag_38:\n      pop\n      pop\n      pop\n      pop\n      pop\n      dup2\n      mstore\n      0x20\n      add\n      0x01\n      dup3\n      add\n      sload\n      dup2\n      mstore\n      0x20\n      add\n      0x02\n      dup3\n      add\n      sload\n      dup2\n      mstore\n      pop\n      pop\n      swap1\n      pop\n        /* \"contracts/Classroom.sol\":361:487  function getStudent(uint256 _indexStudent) public view returns (Student memory){... */\n      swap2\n      swap1\n      pop\n      jump\t// out\n        /* \"contracts/Classroom.sol\":210:355  function addNewStudent(string memory _name,uint256 _age,uint256 _finalMark) public {... */\n    tag_20:\n        /* \"contracts/Classroom.sol\":303:311  students */\n      0x00\n        /* \"contracts/Classroom.sol\":317:347  Student(_name,_age,_finalMark) */\n      mload(0x40)\n      dup1\n      0x60\n      add\n      0x40\n      mstore\n      dup1\n        /* \"contracts/Classroom.sol\":325:330  _name */\n      dup6\n        /* \"contracts/Classroom.sol\":317:347  Student(_name,_age,_finalMark) */\n      dup2\n      mstore\n      0x20\n      add\n        /* \"contracts/Classroom.sol\":331:335  _age */\n      dup5\n        /* \"contracts/Classroom.sol\":317:347  Student(_name,_age,_finalMark) */\n      dup2\n      mstore\n      0x20\n      add\n        /* \"contracts/Classroom.sol\":336:346  _finalMark */\n      dup4\n        /* \"contracts/Classroom.sol\":317:347  Student(_name,_age,_finalMark) */\n      dup2\n      mstore\n      pop\n        /* \"contracts/Classroom.sol\":303:348  students.push(Student(_name,_age,_finalMark)) */\n      swap1\n      dup1\n      0x01\n      dup2\n      sload\n      add\n      dup1\n      dup3\n      sstore\n      dup1\n      swap2\n      pop\n      pop\n      0x01\n      swap1\n      sub\n      swap1\n      0x00\n      mstore\n      keccak256(0x00, 0x20)\n      swap1\n      0x03\n      mul\n      add\n      0x00\n      swap1\n      swap2\n      swap1\n      swap2\n      swap1\n      swap2\n      pop\n      0x00\n      dup3\n      add\n      mload\n      dup2\n      0x00\n      add\n      swap1\n      dup2\n      tag_43\n      swap2\n      swap1\n      tag_44\n      jump\t// in\n    tag_43:\n      pop\n      0x20\n      dup3\n      add\n      mload\n      dup2\n      0x01\n      add\n      sstore\n      0x40\n      dup3\n      add\n      mload\n      dup2\n      0x02\n      add\n      sstore\n      pop\n      pop\n        /* \"contracts/Classroom.sol\":210:355  function addNewStudent(string memory _name,uint256 _age,uint256 _finalMark) public {... */\n      pop\n      pop\n      pop\n      jump\t// out\n    tag_30:\n      mload(0x40)\n      dup1\n      0x60\n      add\n      0x40\n      mstore\n      dup1\n      0x60\n      dup2\n      mstore\n      0x20\n      add\n      0x00\n      dup2\n      mstore\n      0x20\n      add\n      0x00\n      dup2\n      mstore\n      pop\n      swap1\n      jump\t// out\n        /* \"#utility.yul\":7:82   */\n    tag_45:\n        /* \"#utility.yul\":40:46   */\n      0x00\n        /* \"#utility.yul\":73:75   */\n      0x40\n        /* \"#utility.yul\":67:76   */\n      mload\n        /* \"#utility.yul\":57:76   */\n      swap1\n      pop\n        /* \"#utility.yul\":7:82   */\n      swap1\n      jump\t// out\n        /* \"#utility.yul\":88:205   */\n    tag_46:\n        /* \"#utility.yul\":197:198   */\n      0x00\n        /* \"#utility.yul\":194:195   */\n      dup1\n        /* \"#utility.yul\":187:199   */\n      revert\n        /* \"#utility.yul\":211:328   */\n    tag_47:\n        /* \"#utility.yul\":320:321   */\n      0x00\n        /* \"#utility.yul\":317:318   */\n      dup1\n        /* \"#utility.yul\":310:322   */\n      revert\n        /* \"#utility.yul\":334:411   */\n    tag_48:\n        /* \"#utility.yul\":371:378   */\n      0x00\n        /* \"#utility.yul\":400:405   */\n      dup2\n        /* \"#utility.yul\":389:405   */\n      swap1\n      pop\n        /* \"#utility.yul\":334:411   */\n      swap2\n      swap1\n      pop\n      jump\t// out\n        /* \"#utility.yul\":417:539   */\n    tag_49:\n        /* \"#utility.yul\":490:514   */\n      tag_92\n        /* \"#utility.yul\":508:513   */\n      dup2\n        /* \"#utility.yul\":490:514   */\n      tag_48\n      jump\t// in\n    tag_92:\n        /* \"#utility.yul\":483:488   */\n      dup2\n        /* \"#utility.yul\":480:515   */\n      eq\n        /* \"#utility.yul\":470:533   */\n      tag_93\n      jumpi\n        /* \"#utility.yul\":529:530   */\n      0x00\n        /* \"#utility.yul\":526:527   */\n      dup1\n        /* \"#utility.yul\":519:531   */\n      revert\n        /* \"#utility.yul\":470:533   */\n    tag_93:\n        /* \"#utility.yul\":417:539   */\n      pop\n      jump\t// out\n        /* \"#utility.yul\":545:684   */\n    tag_50:\n        /* \"#utility.yul\":591:596   */\n      0x00\n        /* \"#utility.yul\":629:635   */\n      dup2\n        /* \"#utility.yul\":616:636   */\n      calldataload\n        /* \"#utility.yul\":607:636   */\n      swap1\n      pop\n        /* \"#utility.yul\":645:678   */\n      tag_95\n        /* \"#utility.yul\":672:677   */\n      dup2\n        /* \"#utility.yul\":645:678   */\n      tag_49\n      jump\t// in\n    tag_95:\n        /* \"#utility.yul\":545:684   */\n      swap3\n      swap2\n      pop\n      pop\n      jump\t// out\n        /* \"#utility.yul\":690:1019   */\n    tag_8:\n        /* \"#utility.yul\":749:755   */\n      0x00\n        /* \"#utility.yul\":798:800   */\n      0x20\n        /* \"#utility.yul\":786:795   */\n      dup3\n        /* \"#utility.yul\":777:784   */\n      dup5\n        /* \"#utility.yul\":773:796   */\n      sub\n        /* \"#utility.yul\":769:801   */\n      slt\n        /* \"#utility.yul\":766:885   */\n      iszero\n      tag_97\n      jumpi\n        /* \"#utility.yul\":804:883   */\n      tag_98\n      tag_46\n      jump\t// in\n    tag_98:\n        /* \"#utility.yul\":766:885   */\n    tag_97:\n        /* \"#utility.yul\":924:925   */\n      0x00\n        /* \"#utility.yul\":949:1002   */\n      tag_99\n        /* \"#utility.yul\":994:1001   */\n      dup5\n        /* \"#utility.yul\":985:991   */\n      dup3\n        /* \"#utility.yul\":974:983   */\n      dup6\n        /* \"#utility.yul\":970:992   */\n      add\n        /* \"#utility.yul\":949:1002   */\n      tag_50\n      jump\t// in\n    tag_99:\n        /* \"#utility.yul\":939:1002   */\n      swap2\n      pop\n        /* \"#utility.yul\":895:1012   */\n      pop\n        /* \"#utility.yul\":690:1019   */\n      swap3\n      swap2\n      pop\n      pop\n      jump\t// out\n        /* \"#utility.yul\":1025:1124   */\n    tag_51:\n        /* \"#utility.yul\":1077:1083   */\n      0x00\n        /* \"#utility.yul\":1111:1116   */\n      dup2\n        /* \"#utility.yul\":1105:1117   */\n      mload\n        /* \"#utility.yul\":1095:1117   */\n      swap1\n      pop\n        /* \"#utility.yul\":1025:1124   */\n      swap2\n      swap1\n      pop\n      jump\t// out\n        /* \"#utility.yul\":1130:1299   */\n    tag_52:\n        /* \"#utility.yul\":1214:1225   */\n      0x00\n        /* \"#utility.yul\":1248:1254   */\n      dup3\n        /* \"#utility.yul\":1243:1246   */\n      dup3\n        /* \"#utility.yul\":1236:1255   */\n      mstore\n        /* \"#utility.yul\":1288:1292   */\n      0x20\n        /* \"#utility.yul\":1283:1286   */\n      dup3\n        /* \"#utility.yul\":1279:1293   */\n      add\n        /* \"#utility.yul\":1264:1293   */\n      swap1\n      pop\n        /* \"#utility.yul\":1130:1299   */\n      swap3\n      swap2\n      pop\n      pop\n      jump\t// out\n        /* \"#utility.yul\":1305:1551   */\n    tag_53:\n        /* \"#utility.yul\":1386:1387   */\n      0x00\n        /* \"#utility.yul\":1396:1509   */\n    tag_103:\n        /* \"#utility.yul\":1410:1416   */\n      dup4\n        /* \"#utility.yul\":1407:1408   */\n      dup2\n        /* \"#utility.yul\":1404:1417   */\n      lt\n        /* \"#utility.yul\":1396:1509   */\n      iszero\n      tag_105\n      jumpi\n        /* \"#utility.yul\":1495:1496   */\n      dup1\n        /* \"#utility.yul\":1490:1493   */\n      dup3\n        /* \"#utility.yul\":1486:1497   */\n      add\n        /* \"#utility.yul\":1480:1498   */\n      mload\n        /* \"#utility.yul\":1476:1477   */\n      dup2\n        /* \"#utility.yul\":1471:1474   */\n      dup5\n        /* \"#utility.yul\":1467:1478   */\n      add\n        /* \"#utility.yul\":1460:1499   */\n      mstore\n        /* \"#utility.yul\":1432:1434   */\n      0x20\n        /* \"#utility.yul\":1429:1430   */\n      dup2\n        /* \"#utility.yul\":1425:1435   */\n      add\n        /* \"#utility.yul\":1420:1435   */\n      swap1\n      pop\n        /* \"#utility.yul\":1396:1509   */\n      jump(tag_103)\n    tag_105:\n        /* \"#utility.yul\":1543:1544   */\n      0x00\n        /* \"#utility.yul\":1534:1540   */\n      dup5\n        /* \"#utility.yul\":1529:1532   */\n      dup5\n        /* \"#utility.yul\":1525:1541   */\n      add\n        /* \"#utility.yul\":1518:1545   */\n      mstore\n        /* \"#utility.yul\":1367:1551   */\n      pop\n        /* \"#utility.yul\":1305:1551   */\n      pop\n      pop\n      pop\n      jump\t// out\n        /* \"#utility.yul\":1557:1659   */\n    tag_54:\n        /* \"#utility.yul\":1598:1604   */\n      0x00\n        /* \"#utility.yul\":1649:1651   */\n      0x1f\n        /* \"#utility.yul\":1645:1652   */\n      not\n        /* \"#utility.yul\":1640:1642   */\n      0x1f\n        /* \"#utility.yul\":1633:1638   */\n      dup4\n        /* \"#utility.yul\":1629:1643   */\n      add\n        /* \"#utility.yul\":1625:1653   */\n      and\n        /* \"#utility.yul\":1615:1653   */\n      swap1\n      pop\n        /* \"#utility.yul\":1557:1659   */\n      swap2\n      swap1\n      pop\n      jump\t// out\n        /* \"#utility.yul\":1665:2042   */\n    tag_55:\n        /* \"#utility.yul\":1753:1756   */\n      0x00\n        /* \"#utility.yul\":1781:1820   */\n      tag_108\n        /* \"#utility.yul\":1814:1819   */\n      dup3\n        /* \"#utility.yul\":1781:1820   */\n      tag_51\n      jump\t// in\n    tag_108:\n        /* \"#utility.yul\":1836:1907   */\n      tag_109\n        /* \"#utility.yul\":1900:1906   */\n      dup2\n        /* \"#utility.yul\":1895:1898   */\n      dup6\n        /* \"#utility.yul\":1836:1907   */\n      tag_52\n      jump\t// in\n    tag_109:\n        /* \"#utility.yul\":1829:1907   */\n      swap4\n      pop\n        /* \"#utility.yul\":1916:1981   */\n      tag_110\n        /* \"#utility.yul\":1974:1980   */\n      dup2\n        /* \"#utility.yul\":1969:1972   */\n      dup6\n        /* \"#utility.yul\":1962:1966   */\n      0x20\n        /* \"#utility.yul\":1955:1960   */\n      dup7\n        /* \"#utility.yul\":1951:1967   */\n      add\n        /* \"#utility.yul\":1916:1981   */\n      tag_53\n      jump\t// in\n    tag_110:\n        /* \"#utility.yul\":2006:2035   */\n      tag_111\n        /* \"#utility.yul\":2028:2034   */\n      dup2\n        /* \"#utility.yul\":2006:2035   */\n      tag_54\n      jump\t// in\n    tag_111:\n        /* \"#utility.yul\":2001:2004   */\n      dup5\n        /* \"#utility.yul\":1997:2036   */\n      add\n        /* \"#utility.yul\":1990:2036   */\n      swap2\n      pop\n        /* \"#utility.yul\":1757:2042   */\n      pop\n        /* \"#utility.yul\":1665:2042   */\n      swap3\n      swap2\n      pop\n      pop\n      jump\t// out\n        /* \"#utility.yul\":2048:2166   */\n    tag_56:\n        /* \"#utility.yul\":2135:2159   */\n      tag_113\n        /* \"#utility.yul\":2153:2158   */\n      dup2\n        /* \"#utility.yul\":2135:2159   */\n      tag_48\n      jump\t// in\n    tag_113:\n        /* \"#utility.yul\":2130:2133   */\n      dup3\n        /* \"#utility.yul\":2123:2160   */\n      mstore\n        /* \"#utility.yul\":2048:2166   */\n      pop\n      pop\n      jump\t// out\n        /* \"#utility.yul\":2172:2705   */\n    tag_11:\n        /* \"#utility.yul\":2341:2345   */\n      0x00\n        /* \"#utility.yul\":2379:2381   */\n      0x60\n        /* \"#utility.yul\":2368:2377   */\n      dup3\n        /* \"#utility.yul\":2364:2382   */\n      add\n        /* \"#utility.yul\":2356:2382   */\n      swap1\n      pop\n        /* \"#utility.yul\":2428:2437   */\n      dup2\n        /* \"#utility.yul\":2422:2426   */\n      dup2\n        /* \"#utility.yul\":2418:2438   */\n      sub\n        /* \"#utility.yul\":2414:2415   */\n      0x00\n        /* \"#utility.yul\":2403:2412   */\n      dup4\n        /* \"#utility.yul\":2399:2416   */\n      add\n        /* \"#utility.yul\":2392:2439   */\n      mstore\n        /* \"#utility.yul\":2456:2534   */\n      tag_115\n        /* \"#utility.yul\":2529:2533   */\n      dup2\n        /* \"#utility.yul\":2520:2526   */\n      dup7\n        /* \"#utility.yul\":2456:2534   */\n      tag_55\n      jump\t// in\n    tag_115:\n        /* \"#utility.yul\":2448:2534   */\n      swap1\n      pop\n        /* \"#utility.yul\":2544:2616   */\n      tag_116\n        /* \"#utility.yul\":2612:2614   */\n      0x20\n        /* \"#utility.yul\":2601:2610   */\n      dup4\n        /* \"#utility.yul\":2597:2615   */\n      add\n        /* \"#utility.yul\":2588:2594   */\n      dup6\n        /* \"#utility.yul\":2544:2616   */\n      tag_56\n      jump\t// in\n    tag_116:\n        /* \"#utility.yul\":2626:2698   */\n      tag_117\n        /* \"#utility.yul\":2694:2696   */\n      0x40\n        /* \"#utility.yul\":2683:2692   */\n      dup4\n        /* \"#utility.yul\":2679:2697   */\n      add\n        /* \"#utility.yul\":2670:2676   */\n      dup5\n        /* \"#utility.yul\":2626:2698   */\n      tag_56\n      jump\t// in\n    tag_117:\n        /* \"#utility.yul\":2172:2705   */\n      swap5\n      swap4\n      pop\n      pop\n      pop\n      pop\n      jump\t// out\n        /* \"#utility.yul\":2711:2870   */\n    tag_57:\n        /* \"#utility.yul\":2785:2796   */\n      0x00\n        /* \"#utility.yul\":2819:2825   */\n      dup3\n        /* \"#utility.yul\":2814:2817   */\n      dup3\n        /* \"#utility.yul\":2807:2826   */\n      mstore\n        /* \"#utility.yul\":2859:2863   */\n      0x20\n        /* \"#utility.yul\":2854:2857   */\n      dup3\n        /* \"#utility.yul\":2850:2864   */\n      add\n        /* \"#utility.yul\":2835:2864   */\n      swap1\n      pop\n        /* \"#utility.yul\":2711:2870   */\n      swap3\n      swap2\n      pop\n      pop\n      jump\t// out\n        /* \"#utility.yul\":2876:3233   */\n    tag_58:\n        /* \"#utility.yul\":2954:2957   */\n      0x00\n        /* \"#utility.yul\":2982:3021   */\n      tag_120\n        /* \"#utility.yul\":3015:3020   */\n      dup3\n        /* \"#utility.yul\":2982:3021   */\n      tag_51\n      jump\t// in\n    tag_120:\n        /* \"#utility.yul\":3037:3098   */\n      tag_121\n        /* \"#utility.yul\":3091:3097   */\n      dup2\n        /* \"#utility.yul\":3086:3089   */\n      dup6\n        /* \"#utility.yul\":3037:3098   */\n      tag_57\n      jump\t// in\n    tag_121:\n        /* \"#utility.yul\":3030:3098   */\n      swap4\n      pop\n        /* \"#utility.yul\":3107:3172   */\n      tag_122\n        /* \"#utility.yul\":3165:3171   */\n      dup2\n        /* \"#utility.yul\":3160:3163   */\n      dup6\n        /* \"#utility.yul\":3153:3157   */\n      0x20\n        /* \"#utility.yul\":3146:3151   */\n      dup7\n        /* \"#utility.yul\":3142:3158   */\n      add\n        /* \"#utility.yul\":3107:3172   */\n      tag_53\n      jump\t// in\n    tag_122:\n        /* \"#utility.yul\":3197:3226   */\n      tag_123\n        /* \"#utility.yul\":3219:3225   */\n      dup2\n        /* \"#utility.yul\":3197:3226   */\n      tag_54\n      jump\t// in\n    tag_123:\n        /* \"#utility.yul\":3192:3195   */\n      dup5\n        /* \"#utility.yul\":3188:3227   */\n      add\n        /* \"#utility.yul\":3181:3227   */\n      swap2\n      pop\n        /* \"#utility.yul\":2958:3233   */\n      pop\n        /* \"#utility.yul\":2876:3233   */\n      swap3\n      swap2\n      pop\n      pop\n      jump\t// out\n        /* \"#utility.yul\":3239:3347   */\n    tag_59:\n        /* \"#utility.yul\":3316:3340   */\n      tag_125\n        /* \"#utility.yul\":3334:3339   */\n      dup2\n        /* \"#utility.yul\":3316:3340   */\n      tag_48\n      jump\t// in\n    tag_125:\n        /* \"#utility.yul\":3311:3314   */\n      dup3\n        /* \"#utility.yul\":3304:3341   */\n      mstore\n        /* \"#utility.yul\":3239:3347   */\n      pop\n      pop\n      jump\t// out\n        /* \"#utility.yul\":3413:4191   */\n    tag_60:\n        /* \"#utility.yul\":3526:3529   */\n      0x00\n        /* \"#utility.yul\":3562:3566   */\n      0x60\n        /* \"#utility.yul\":3557:3560   */\n      dup4\n        /* \"#utility.yul\":3553:3567   */\n      add\n        /* \"#utility.yul\":3649:3653   */\n      0x00\n        /* \"#utility.yul\":3642:3647   */\n      dup4\n        /* \"#utility.yul\":3638:3654   */\n      add\n        /* \"#utility.yul\":3632:3655   */\n      mload\n        /* \"#utility.yul\":3702:3705   */\n      dup5\n        /* \"#utility.yul\":3696:3700   */\n      dup3\n        /* \"#utility.yul\":3692:3706   */\n      sub\n        /* \"#utility.yul\":3685:3689   */\n      0x00\n        /* \"#utility.yul\":3680:3683   */\n      dup7\n        /* \"#utility.yul\":3676:3690   */\n      add\n        /* \"#utility.yul\":3669:3707   */\n      mstore\n        /* \"#utility.yul\":3728:3801   */\n      tag_127\n        /* \"#utility.yul\":3796:3800   */\n      dup3\n        /* \"#utility.yul\":3782:3794   */\n      dup3\n        /* \"#utility.yul\":3728:3801   */\n      tag_58\n      jump\t// in\n    tag_127:\n        /* \"#utility.yul\":3720:3801   */\n      swap2\n      pop\n        /* \"#utility.yul\":3577:3812   */\n      pop\n        /* \"#utility.yul\":3893:3897   */\n      0x20\n        /* \"#utility.yul\":3886:3891   */\n      dup4\n        /* \"#utility.yul\":3882:3898   */\n      add\n        /* \"#utility.yul\":3876:3899   */\n      mload\n        /* \"#utility.yul\":3912:3975   */\n      tag_128\n        /* \"#utility.yul\":3969:3973   */\n      0x20\n        /* \"#utility.yul\":3964:3967   */\n      dup7\n        /* \"#utility.yul\":3960:3974   */\n      add\n        /* \"#utility.yul\":3946:3958   */\n      dup3\n        /* \"#utility.yul\":3912:3975   */\n      tag_59\n      jump\t// in\n    tag_128:\n        /* \"#utility.yul\":3822:3985   */\n      pop\n        /* \"#utility.yul\":4072:4076   */\n      0x40\n        /* \"#utility.yul\":4065:4070   */\n      dup4\n        /* \"#utility.yul\":4061:4077   */\n      add\n        /* \"#utility.yul\":4055:4078   */\n      mload\n        /* \"#utility.yul\":4091:4154   */\n      tag_129\n        /* \"#utility.yul\":4148:4152   */\n      0x40\n        /* \"#utility.yul\":4143:4146   */\n      dup7\n        /* \"#utility.yul\":4139:4153   */\n      add\n        /* \"#utility.yul\":4125:4137   */\n      dup3\n        /* \"#utility.yul\":4091:4154   */\n      tag_59\n      jump\t// in\n    tag_129:\n        /* \"#utility.yul\":3995:4164   */\n      pop\n        /* \"#utility.yul\":4181:4185   */\n      dup1\n        /* \"#utility.yul\":4174:4185   */\n      swap2\n      pop\n        /* \"#utility.yul\":3531:4191   */\n      pop\n        /* \"#utility.yul\":3413:4191   */\n      swap3\n      swap2\n      pop\n      pop\n      jump\t// out\n        /* \"#utility.yul\":4197:4558   */\n    tag_16:\n        /* \"#utility.yul\":4334:4338   */\n      0x00\n        /* \"#utility.yul\":4372:4374   */\n      0x20\n        /* \"#utility.yul\":4361:4370   */\n      dup3\n        /* \"#utility.yul\":4357:4375   */\n      add\n        /* \"#utility.yul\":4349:4375   */\n      swap1\n      pop\n        /* \"#utility.yul\":4421:4430   */\n      dup2\n        /* \"#utility.yul\":4415:4419   */\n      dup2\n        /* \"#utility.yul\":4411:4431   */\n      sub\n        /* \"#utility.yul\":4407:4408   */\n      0x00\n        /* \"#utility.yul\":4396:4405   */\n      dup4\n        /* \"#utility.yul\":4392:4409   */\n      add\n        /* \"#utility.yul\":4385:4432   */\n      mstore\n        /* \"#utility.yul\":4449:4551   */\n      tag_131\n        /* \"#utility.yul\":4546:4550   */\n      dup2\n        /* \"#utility.yul\":4537:4543   */\n      dup5\n        /* \"#utility.yul\":4449:4551   */\n      tag_60\n      jump\t// in\n    tag_131:\n        /* \"#utility.yul\":4441:4551   */\n      swap1\n      pop\n        /* \"#utility.yul\":4197:4558   */\n      swap3\n      swap2\n      pop\n      pop\n      jump\t// out\n        /* \"#utility.yul\":4564:4681   */\n    tag_61:\n        /* \"#utility.yul\":4673:4674   */\n      0x00\n        /* \"#utility.yul\":4670:4671   */\n      dup1\n        /* \"#utility.yul\":4663:4675   */\n      revert\n        /* \"#utility.yul\":4687:4804   */\n    tag_62:\n        /* \"#utility.yul\":4796:4797   */\n      0x00\n        /* \"#utility.yul\":4793:4794   */\n      dup1\n        /* \"#utility.yul\":4786:4798   */\n      revert\n        /* \"#utility.yul\":4810:4990   */\n    tag_63:\n        /* \"#utility.yul\":4858:4935   */\n      0x4e487b7100000000000000000000000000000000000000000000000000000000\n        /* \"#utility.yul\":4855:4856   */\n      0x00\n        /* \"#utility.yul\":4848:4936   */\n      mstore\n        /* \"#utility.yul\":4955:4959   */\n      0x41\n        /* \"#utility.yul\":4952:4953   */\n      0x04\n        /* \"#utility.yul\":4945:4960   */\n      mstore\n        /* \"#utility.yul\":4979:4983   */\n      0x24\n        /* \"#utility.yul\":4976:4977   */\n      0x00\n        /* \"#utility.yul\":4969:4984   */\n      revert\n        /* \"#utility.yul\":4996:5277   */\n    tag_64:\n        /* \"#utility.yul\":5079:5106   */\n      tag_136\n        /* \"#utility.yul\":5101:5105   */\n      dup3\n        /* \"#utility.yul\":5079:5106   */\n      tag_54\n      jump\t// in\n    tag_136:\n        /* \"#utility.yul\":5071:5077   */\n      dup2\n        /* \"#utility.yul\":5067:5107   */\n      add\n        /* \"#utility.yul\":5209:5215   */\n      dup2\n        /* \"#utility.yul\":5197:5207   */\n      dup2\n        /* \"#utility.yul\":5194:5216   */\n      lt\n        /* \"#utility.yul\":5173:5191   */\n      0xffffffffffffffff\n        /* \"#utility.yul\":5161:5171   */\n      dup3\n        /* \"#utility.yul\":5158:5192   */\n      gt\n        /* \"#utility.yul\":5155:5217   */\n      or\n        /* \"#utility.yul\":5152:5240   */\n      iszero\n      tag_137\n      jumpi\n        /* \"#utility.yul\":5220:5238   */\n      tag_138\n      tag_63\n      jump\t// in\n    tag_138:\n        /* \"#utility.yul\":5152:5240   */\n    tag_137:\n        /* \"#utility.yul\":5260:5270   */\n      dup1\n        /* \"#utility.yul\":5256:5258   */\n      0x40\n        /* \"#utility.yul\":5249:5271   */\n      mstore\n        /* \"#utility.yul\":5039:5277   */\n      pop\n        /* \"#utility.yul\":4996:5277   */\n      pop\n      pop\n      jump\t// out\n        /* \"#utility.yul\":5283:5412   */\n    tag_65:\n        /* \"#utility.yul\":5317:5323   */\n      0x00\n        /* \"#utility.yul\":5344:5364   */\n      tag_140\n      tag_45\n      jump\t// in\n    tag_140:\n        /* \"#utility.yul\":5334:5364   */\n      swap1\n      pop\n        /* \"#utility.yul\":5373:5406   */\n      tag_141\n        /* \"#utility.yul\":5401:5405   */\n      dup3\n        /* \"#utility.yul\":5393:5399   */\n      dup3\n        /* \"#utility.yul\":5373:5406   */\n      tag_64\n      jump\t// in\n    tag_141:\n        /* \"#utility.yul\":5283:5412   */\n      swap2\n      swap1\n      pop\n      jump\t// out\n        /* \"#utility.yul\":5418:5726   */\n    tag_66:\n        /* \"#utility.yul\":5480:5484   */\n      0x00\n        /* \"#utility.yul\":5570:5588   */\n      0xffffffffffffffff\n        /* \"#utility.yul\":5562:5568   */\n      dup3\n        /* \"#utility.yul\":5559:5589   */\n      gt\n        /* \"#utility.yul\":5556:5612   */\n      iszero\n      tag_143\n      jumpi\n        /* \"#utility.yul\":5592:5610   */\n      tag_144\n      tag_63\n      jump\t// in\n    tag_144:\n        /* \"#utility.yul\":5556:5612   */\n    tag_143:\n        /* \"#utility.yul\":5630:5659   */\n      tag_145\n        /* \"#utility.yul\":5652:5658   */\n      dup3\n        /* \"#utility.yul\":5630:5659   */\n      tag_54\n      jump\t// in\n    tag_145:\n        /* \"#utility.yul\":5622:5659   */\n      swap1\n      pop\n        /* \"#utility.yul\":5714:5718   */\n      0x20\n        /* \"#utility.yul\":5708:5712   */\n      dup2\n        /* \"#utility.yul\":5704:5719   */\n      add\n        /* \"#utility.yul\":5696:5719   */\n      swap1\n      pop\n        /* \"#utility.yul\":5418:5726   */\n      swap2\n      swap1\n      pop\n      jump\t// out\n        /* \"#utility.yul\":5732:5878   */\n    tag_67:\n        /* \"#utility.yul\":5829:5835   */\n      dup3\n        /* \"#utility.yul\":5824:5827   */\n      dup2\n        /* \"#utility.yul\":5819:5822   */\n      dup4\n        /* \"#utility.yul\":5806:5836   */\n      calldatacopy\n        /* \"#utility.yul\":5870:5871   */\n      0x00\n        /* \"#utility.yul\":5861:5867   */\n      dup4\n        /* \"#utility.yul\":5856:5859   */\n      dup4\n        /* \"#utility.yul\":5852:5868   */\n      add\n        /* \"#utility.yul\":5845:5872   */\n      mstore\n        /* \"#utility.yul\":5732:5878   */\n      pop\n      pop\n      pop\n      jump\t// out\n        /* \"#utility.yul\":5884:6309   */\n    tag_68:\n        /* \"#utility.yul\":5962:5967   */\n      0x00\n        /* \"#utility.yul\":5987:6053   */\n      tag_148\n        /* \"#utility.yul\":6003:6052   */\n      tag_149\n        /* \"#utility.yul\":6045:6051   */\n      dup5\n        /* \"#utility.yul\":6003:6052   */\n      tag_66\n      jump\t// in\n    tag_149:\n        /* \"#utility.yul\":5987:6053   */\n      tag_65\n      jump\t// in\n    tag_148:\n        /* \"#utility.yul\":5978:6053   */\n      swap1\n      pop\n        /* \"#utility.yul\":6076:6082   */\n      dup3\n        /* \"#utility.yul\":6069:6074   */\n      dup2\n        /* \"#utility.yul\":6062:6083   */\n      mstore\n        /* \"#utility.yul\":6114:6118   */\n      0x20\n        /* \"#utility.yul\":6107:6112   */\n      dup2\n        /* \"#utility.yul\":6103:6119   */\n      add\n        /* \"#utility.yul\":6152:6155   */\n      dup5\n        /* \"#utility.yul\":6143:6149   */\n      dup5\n        /* \"#utility.yul\":6138:6141   */\n      dup5\n        /* \"#utility.yul\":6134:6150   */\n      add\n        /* \"#utility.yul\":6131:6156   */\n      gt\n        /* \"#utility.yul\":6128:6240   */\n      iszero\n      tag_150\n      jumpi\n        /* \"#utility.yul\":6159:6238   */\n      tag_151\n      tag_62\n      jump\t// in\n    tag_151:\n        /* \"#utility.yul\":6128:6240   */\n    tag_150:\n        /* \"#utility.yul\":6249:6303   */\n      tag_152\n        /* \"#utility.yul\":6296:6302   */\n      dup5\n        /* \"#utility.yul\":6291:6294   */\n      dup3\n        /* \"#utility.yul\":6286:6289   */\n      dup6\n        /* \"#utility.yul\":6249:6303   */\n      tag_67\n      jump\t// in\n    tag_152:\n        /* \"#utility.yul\":5968:6309   */\n      pop\n        /* \"#utility.yul\":5884:6309   */\n      swap4\n      swap3\n      pop\n      pop\n      pop\n      jump\t// out\n        /* \"#utility.yul\":6329:6669   */\n    tag_69:\n        /* \"#utility.yul\":6385:6390   */\n      0x00\n        /* \"#utility.yul\":6434:6437   */\n      dup3\n        /* \"#utility.yul\":6427:6431   */\n      0x1f\n        /* \"#utility.yul\":6419:6425   */\n      dup4\n        /* \"#utility.yul\":6415:6432   */\n      add\n        /* \"#utility.yul\":6411:6438   */\n      slt\n        /* \"#utility.yul\":6401:6523   */\n      tag_154\n      jumpi\n        /* \"#utility.yul\":6442:6521   */\n      tag_155\n      tag_61\n      jump\t// in\n    tag_155:\n        /* \"#utility.yul\":6401:6523   */\n    tag_154:\n        /* \"#utility.yul\":6559:6565   */\n      dup2\n        /* \"#utility.yul\":6546:6566   */\n      calldataload\n        /* \"#utility.yul\":6584:6663   */\n      tag_156\n        /* \"#utility.yul\":6659:6662   */\n      dup5\n        /* \"#utility.yul\":6651:6657   */\n      dup3\n        /* \"#utility.yul\":6644:6648   */\n      0x20\n        /* \"#utility.yul\":6636:6642   */\n      dup7\n        /* \"#utility.yul\":6632:6649   */\n      add\n        /* \"#utility.yul\":6584:6663   */\n      tag_68\n      jump\t// in\n    tag_156:\n        /* \"#utility.yul\":6575:6663   */\n      swap2\n      pop\n        /* \"#utility.yul\":6391:6669   */\n      pop\n        /* \"#utility.yul\":6329:6669   */\n      swap3\n      swap2\n      pop\n      pop\n      jump\t// out\n        /* \"#utility.yul\":6675:7474   */\n    tag_19:\n        /* \"#utility.yul\":6762:6768   */\n      0x00\n        /* \"#utility.yul\":6770:6776   */\n      dup1\n        /* \"#utility.yul\":6778:6784   */\n      0x00\n        /* \"#utility.yul\":6827:6829   */\n      0x60\n        /* \"#utility.yul\":6815:6824   */\n      dup5\n        /* \"#utility.yul\":6806:6813   */\n      dup7\n        /* \"#utility.yul\":6802:6825   */\n      sub\n        /* \"#utility.yul\":6798:6830   */\n      slt\n        /* \"#utility.yul\":6795:6914   */\n      iszero\n      tag_158\n      jumpi\n        /* \"#utility.yul\":6833:6912   */\n      tag_159\n      tag_46\n      jump\t// in\n    tag_159:\n        /* \"#utility.yul\":6795:6914   */\n    tag_158:\n        /* \"#utility.yul\":6981:6982   */\n      0x00\n        /* \"#utility.yul\":6970:6979   */\n      dup5\n        /* \"#utility.yul\":6966:6983   */\n      add\n        /* \"#utility.yul\":6953:6984   */\n      calldataload\n        /* \"#utility.yul\":7011:7029   */\n      0xffffffffffffffff\n        /* \"#utility.yul\":7003:7009   */\n      dup2\n        /* \"#utility.yul\":7000:7030   */\n      gt\n        /* \"#utility.yul\":6997:7114   */\n      iszero\n      tag_160\n      jumpi\n        /* \"#utility.yul\":7033:7112   */\n      tag_161\n      tag_47\n      jump\t// in\n    tag_161:\n        /* \"#utility.yul\":6997:7114   */\n    tag_160:\n        /* \"#utility.yul\":7138:7201   */\n      tag_162\n        /* \"#utility.yul\":7193:7200   */\n      dup7\n        /* \"#utility.yul\":7184:7190   */\n      dup3\n        /* \"#utility.yul\":7173:7182   */\n      dup8\n        /* \"#utility.yul\":7169:7191   */\n      add\n        /* \"#utility.yul\":7138:7201   */\n      tag_69\n      jump\t// in\n    tag_162:\n        /* \"#utility.yul\":7128:7201   */\n      swap4\n      pop\n        /* \"#utility.yul\":6924:7211   */\n      pop\n        /* \"#utility.yul\":7250:7252   */\n      0x20\n        /* \"#utility.yul\":7276:7329   */\n      tag_163\n        /* \"#utility.yul\":7321:7328   */\n      dup7\n        /* \"#utility.yul\":7312:7318   */\n      dup3\n        /* \"#utility.yul\":7301:7310   */\n      dup8\n        /* \"#utility.yul\":7297:7319   */\n      add\n        /* \"#utility.yul\":7276:7329   */\n      tag_50\n      jump\t// in\n    tag_163:\n        /* \"#utility.yul\":7266:7329   */\n      swap3\n      pop\n        /* \"#utility.yul\":7221:7339   */\n      pop\n        /* \"#utility.yul\":7378:7380   */\n      0x40\n        /* \"#utility.yul\":7404:7457   */\n      tag_164\n        /* \"#utility.yul\":7449:7456   */\n      dup7\n        /* \"#utility.yul\":7440:7446   */\n      dup3\n        /* \"#utility.yul\":7429:7438   */\n      dup8\n        /* \"#utility.yul\":7425:7447   */\n      add\n        /* \"#utility.yul\":7404:7457   */\n      tag_50\n      jump\t// in\n    tag_164:\n        /* \"#utility.yul\":7394:7457   */\n      swap2\n      pop\n        /* \"#utility.yul\":7349:7467   */\n      pop\n        /* \"#utility.yul\":6675:7474   */\n      swap3\n      pop\n      swap3\n      pop\n      swap3\n      jump\t// out\n        /* \"#utility.yul\":7480:7660   */\n    tag_70:\n        /* \"#utility.yul\":7528:7605   */\n      0x4e487b7100000000000000000000000000000000000000000000000000000000\n        /* \"#utility.yul\":7525:7526   */\n      0x00\n        /* \"#utility.yul\":7518:7606   */\n      mstore\n        /* \"#utility.yul\":7625:7629   */\n      0x22\n        /* \"#utility.yul\":7622:7623   */\n      0x04\n        /* \"#utility.yul\":7615:7630   */\n      mstore\n        /* \"#utility.yul\":7649:7653   */\n      0x24\n        /* \"#utility.yul\":7646:7647   */\n      0x00\n        /* \"#utility.yul\":7639:7654   */\n      revert\n        /* \"#utility.yul\":7666:7986   */\n    tag_24:\n        /* \"#utility.yul\":7710:7716   */\n      0x00\n        /* \"#utility.yul\":7747:7748   */\n      0x02\n        /* \"#utility.yul\":7741:7745   */\n      dup3\n        /* \"#utility.yul\":7737:7749   */\n      div\n        /* \"#utility.yul\":7727:7749   */\n      swap1\n      pop\n        /* \"#utility.yul\":7794:7795   */\n      0x01\n        /* \"#utility.yul\":7788:7792   */\n      dup3\n        /* \"#utility.yul\":7784:7796   */\n      and\n        /* \"#utility.yul\":7815:7833   */\n      dup1\n        /* \"#utility.yul\":7805:7886   */\n      tag_167\n      jumpi\n        /* \"#utility.yul\":7871:7875   */\n      0x7f\n        /* \"#utility.yul\":7863:7869   */\n      dup3\n        /* \"#utility.yul\":7859:7876   */\n      and\n        /* \"#utility.yul\":7849:7876   */\n      swap2\n      pop\n        /* \"#utility.yul\":7805:7886   */\n    tag_167:\n        /* \"#utility.yul\":7933:7935   */\n      0x20\n        /* \"#utility.yul\":7925:7931   */\n      dup3\n        /* \"#utility.yul\":7922:7936   */\n      lt\n        /* \"#utility.yul\":7902:7920   */\n      dup2\n        /* \"#utility.yul\":7899:7937   */\n      sub\n        /* \"#utility.yul\":7896:7980   */\n      tag_168\n      jumpi\n        /* \"#utility.yul\":7952:7970   */\n      tag_169\n      tag_70\n      jump\t// in\n    tag_169:\n        /* \"#utility.yul\":7896:7980   */\n    tag_168:\n        /* \"#utility.yul\":7717:7986   */\n      pop\n        /* \"#utility.yul\":7666:7986   */\n      swap2\n      swap1\n      pop\n      jump\t// out\n        /* \"#utility.yul\":7992:8172   */\n    tag_34:\n        /* \"#utility.yul\":8040:8117   */\n      0x4e487b7100000000000000000000000000000000000000000000000000000000\n        /* \"#utility.yul\":8037:8038   */\n      0x00\n        /* \"#utility.yul\":8030:8118   */\n      mstore\n        /* \"#utility.yul\":8137:8141   */\n      0x32\n        /* \"#utility.yul\":8134:8135   */\n      0x04\n        /* \"#utility.yul\":8127:8142   */\n      mstore\n        /* \"#utility.yul\":8161:8165   */\n      0x24\n        /* \"#utility.yul\":8158:8159   */\n      0x00\n        /* \"#utility.yul\":8151:8166   */\n      revert\n        /* \"#utility.yul\":8178:8319   */\n    tag_71:\n        /* \"#utility.yul\":8227:8231   */\n      0x00\n        /* \"#utility.yul\":8250:8253   */\n      dup2\n        /* \"#utility.yul\":8242:8253   */\n      swap1\n      pop\n        /* \"#utility.yul\":8273:8276   */\n      dup2\n        /* \"#utility.yul\":8270:8271   */\n      0x00\n        /* \"#utility.yul\":8263:8277   */\n      mstore\n        /* \"#utility.yul\":8307:8311   */\n      0x20\n        /* \"#utility.yul\":8304:8305   */\n      0x00\n        /* \"#utility.yul\":8294:8312   */\n      keccak256\n        /* \"#utility.yul\":8286:8312   */\n      swap1\n      pop\n        /* \"#utility.yul\":8178:8319   */\n      swap2\n      swap1\n      pop\n      jump\t// out\n        /* \"#utility.yul\":8325:8418   */\n    tag_72:\n        /* \"#utility.yul\":8362:8368   */\n      0x00\n        /* \"#utility.yul\":8409:8411   */\n      0x20\n        /* \"#utility.yul\":8404:8406   */\n      0x1f\n        /* \"#utility.yul\":8397:8402   */\n      dup4\n        /* \"#utility.yul\":8393:8407   */\n      add\n        /* \"#utility.yul\":8389:8412   */\n      div\n        /* \"#utility.yul\":8379:8412   */\n      swap1\n      pop\n        /* \"#utility.yul\":8325:8418   */\n      swap2\n      swap1\n      pop\n      jump\t// out\n        /* \"#utility.yul\":8424:8531   */\n    tag_73:\n        /* \"#utility.yul\":8468:8476   */\n      0x00\n        /* \"#utility.yul\":8518:8523   */\n      dup3\n        /* \"#utility.yul\":8512:8516   */\n      dup3\n        /* \"#utility.yul\":8508:8524   */\n      shl\n        /* \"#utility.yul\":8487:8524   */\n      swap1\n      pop\n        /* \"#utility.yul\":8424:8531   */\n      swap3\n      swap2\n      pop\n      pop\n      jump\t// out\n        /* \"#utility.yul\":8537:8930   */\n    tag_74:\n        /* \"#utility.yul\":8606:8612   */\n      0x00\n        /* \"#utility.yul\":8656:8657   */\n      0x08\n        /* \"#utility.yul\":8644:8654   */\n      dup4\n        /* \"#utility.yul\":8640:8658   */\n      mul\n        /* \"#utility.yul\":8679:8776   */\n      tag_175\n        /* \"#utility.yul\":8709:8775   */\n      0xffffffffffffffffffffffffffffffffffffffffffffffffffffffffffffffff\n        /* \"#utility.yul\":8698:8707   */\n      dup3\n        /* \"#utility.yul\":8679:8776   */\n      tag_73\n      jump\t// in\n    tag_175:\n        /* \"#utility.yul\":8797:8836   */\n      tag_176\n        /* \"#utility.yul\":8827:8835   */\n      dup7\n        /* \"#utility.yul\":8816:8825   */\n      dup4\n        /* \"#utility.yul\":8797:8836   */\n      tag_73\n      jump\t// in\n    tag_176:\n        /* \"#utility.yul\":8785:8836   */\n      swap6\n      pop\n        /* \"#utility.yul\":8869:8873   */\n      dup1\n        /* \"#utility.yul\":8865:8874   */\n      not\n        /* \"#utility.yul\":8858:8863   */\n      dup5\n        /* \"#utility.yul\":8854:8875   */\n      and\n        /* \"#utility.yul\":8845:8875   */\n      swap4\n      pop\n        /* \"#utility.yul\":8918:8922   */\n      dup1\n        /* \"#utility.yul\":8908:8916   */\n      dup7\n        /* \"#utility.yul\":8904:8923   */\n      and\n        /* \"#utility.yul\":8897:8902   */\n      dup5\n        /* \"#utility.yul\":8894:8924   */\n      or\n        /* \"#utility.yul\":8884:8924   */\n      swap3\n      pop\n        /* \"#utility.yul\":8613:8930   */\n      pop\n      pop\n        /* \"#utility.yul\":8537:8930   */\n      swap4\n      swap3\n      pop\n      pop\n      pop\n      jump\t// out\n        /* \"#utility.yul\":8936:8996   */\n    tag_75:\n        /* \"#utility.yul\":8964:8967   */\n      0x00\n        /* \"#utility.yul\":8985:8990   */\n      dup2\n        /* \"#utility.yul\":8978:8990   */\n      swap1\n      pop\n        /* \"#utility.yul\":8936:8996   */\n      swap2\n      swap1\n      pop\n      jump\t// out\n        /* \"#utility.yul\":9002:9144   */\n    tag_76:\n        /* \"#utility.yul\":9052:9061   */\n      0x00\n        /* \"#utility.yul\":9085:9138   */\n      tag_179\n        /* \"#utility.yul\":9103:9137   */\n      tag_180\n        /* \"#utility.yul\":9112:9136   */\n      tag_181\n        /* \"#utility.yul\":9130:9135   */\n      dup5\n        /* \"#utility.yul\":9112:9136   */\n      tag_48\n      jump\t// in\n    tag_181:\n        /* \"#utility.yul\":9103:9137   */\n      tag_75\n      jump\t// in\n    tag_180:\n        /* \"#utility.yul\":9085:9138   */\n      tag_48\n      jump\t// in\n    tag_179:\n        /* \"#utility.yul\":9072:9138   */\n      swap1\n      pop\n        /* \"#utility.yul\":9002:9144   */\n      swap2\n      swap1\n      pop\n      jump\t// out\n        /* \"#utility.yul\":9150:9225   */\n    tag_77:\n        /* \"#utility.yul\":9193:9196   */\n      0x00\n        /* \"#utility.yul\":9214:9219   */\n      dup2\n        /* \"#utility.yul\":9207:9219   */\n      swap1\n      pop\n        /* \"#utility.yul\":9150:9225   */\n      swap2\n      swap1\n      pop\n      jump\t// out\n        /* \"#utility.yul\":9231:9500   */\n    tag_78:\n        /* \"#utility.yul\":9341:9380   */\n      tag_184\n        /* \"#utility.yul\":9372:9379   */\n      dup4\n        /* \"#utility.yul\":9341:9380   */\n      tag_76\n      jump\t// in\n    tag_184:\n        /* \"#utility.yul\":9402:9493   */\n      tag_185\n        /* \"#utility.yul\":9451:9492   */\n      tag_186\n        /* \"#utility.yul\":9475:9491   */\n      dup3\n        /* \"#utility.yul\":9451:9492   */\n      tag_77\n      jump\t// in\n    tag_186:\n        /* \"#utility.yul\":9443:9449   */\n      dup5\n        /* \"#utility.yul\":9436:9440   */\n      dup5\n        /* \"#utility.yul\":9430:9441   */\n      sload\n        /* \"#utility.yul\":9402:9493   */\n      tag_74\n      jump\t// in\n    tag_185:\n        /* \"#utility.yul\":9396:9400   */\n      dup3\n        /* \"#utility.yul\":9389:9494   */\n      sstore\n        /* \"#utility.yul\":9307:9500   */\n      pop\n        /* \"#utility.yul\":9231:9500   */\n      pop\n      pop\n      pop\n      jump\t// out\n        /* \"#utility.yul\":9506:9579   */\n    tag_79:\n        /* \"#utility.yul\":9551:9554   */\n      0x00\n        /* \"#utility.yul\":9506:9579   */\n      swap1\n      jump\t// out\n        /* \"#utility.yul\":9585:9774   */\n    tag_80:\n        /* \"#utility.yul\":9662:9694   */\n      tag_189\n      tag_79\n      jump\t// in\n    tag_189:\n        /* \"#utility.yul\":9703:9768   */\n      tag_190\n        /* \"#utility.yul\":9761:9767   */\n      dup2\n        /* \"#utility.yul\":9753:9759   */\n      dup5\n        /* \"#utility.yul\":9747:9751   */\n      dup5\n        /* \"#utility.yul\":9703:9768   */\n      tag_78\n      jump\t// in\n    tag_190:\n        /* \"#utility.yul\":9638:9774   */\n      pop\n        /* \"#utility.yul\":9585:9774   */\n      pop\n      pop\n      jump\t// out\n        /* \"#utility.yul\":9780:9966   */\n    tag_81:\n        /* \"#utility.yul\":9840:9960   */\n    tag_192:\n        /* \"#utility.yul\":9857:9860   */\n      dup2\n        /* \"#utility.yul\":9850:9855   */\n      dup2\n        /* \"#utility.yul\":9847:9861   */\n      lt\n        /* \"#utility.yul\":9840:9960   */\n      iszero\n      tag_194\n      jumpi\n        /* \"#utility.yul\":9911:9950   */\n      tag_195\n        /* \"#utility.yul\":9948:9949   */\n      0x00\n        /* \"#utility.yul\":9941:9946   */\n      dup3\n        /* \"#utility.yul\":9911:9950   */\n      tag_80\n      jump\t// in\n    tag_195:\n        /* \"#utility.yul\":9884:9885   */\n      0x01\n        /* \"#utility.yul\":9877:9882   */\n      dup2\n        /* \"#utility.yul\":9873:9886   */\n      add\n        /* \"#utility.yul\":9864:9886   */\n      swap1\n      pop\n        /* \"#utility.yul\":9840:9960   */\n      jump(tag_192)\n    tag_194:\n        /* \"#utility.yul\":9780:9966   */\n      pop\n      pop\n      jump\t// out\n        /* \"#utility.yul\":9972:10515   */\n    tag_82:\n        /* \"#utility.yul\":10073:10075   */\n      0x1f\n        /* \"#utility.yul\":10068:10071   */\n      dup3\n        /* \"#utility.yul\":10065:10076   */\n      gt\n        /* \"#utility.yul\":10062:10508   */\n      iszero\n      tag_197\n      jumpi\n        /* \"#utility.yul\":10107:10145   */\n      tag_198\n        /* \"#utility.yul\":10139:10144   */\n      dup2\n        /* \"#utility.yul\":10107:10145   */\n      tag_71\n      jump\t// in\n    tag_198:\n        /* \"#utility.yul\":10191:10220   */\n      tag_199\n        /* \"#utility.yul\":10209:10219   */\n      dup5\n        /* \"#utility.yul\":10191:10220   */\n      tag_72\n      jump\t// in\n    tag_199:\n        /* \"#utility.yul\":10181:10189   */\n      dup2\n        /* \"#utility.yul\":10177:10221   */\n      add\n        /* \"#utility.yul\":10374:10376   */\n      0x20\n        /* \"#utility.yul\":10362:10372   */\n      dup6\n        /* \"#utility.yul\":10359:10377   */\n      lt\n        /* \"#utility.yul\":10356:10405   */\n      iszero\n      tag_200\n      jumpi\n        /* \"#utility.yul\":10395:10403   */\n      dup2\n        /* \"#utility.yul\":10380:10403   */\n      swap1\n      pop\n        /* \"#utility.yul\":10356:10405   */\n    tag_200:\n        /* \"#utility.yul\":10418:10498   */\n      tag_201\n        /* \"#utility.yul\":10474:10496   */\n      tag_202\n        /* \"#utility.yul\":10492:10495   */\n      dup6\n        /* \"#utility.yul\":10474:10496   */\n      tag_72\n      jump\t// in\n    tag_202:\n        /* \"#utility.yul\":10464:10472   */\n      dup4\n        /* \"#utility.yul\":10460:10497   */\n      add\n        /* \"#utility.yul\":10447:10458   */\n      dup3\n        /* \"#utility.yul\":10418:10498   */\n      tag_81\n      jump\t// in\n    tag_201:\n        /* \"#utility.yul\":10077:10508   */\n      pop\n      pop\n        /* \"#utility.yul\":10062:10508   */\n    tag_197:\n        /* \"#utility.yul\":9972:10515   */\n      pop\n      pop\n      pop\n      jump\t// out\n        /* \"#utility.yul\":10521:10638   */\n    tag_83:\n        /* \"#utility.yul\":10575:10583   */\n      0x00\n        /* \"#utility.yul\":10625:10630   */\n      dup3\n        /* \"#utility.yul\":10619:10623   */\n      dup3\n        /* \"#utility.yul\":10615:10631   */\n      shr\n        /* \"#utility.yul\":10594:10631   */\n      swap1\n      pop\n        /* \"#utility.yul\":10521:10638   */\n      swap3\n      swap2\n      pop\n      pop\n      jump\t// out\n        /* \"#utility.yul\":10644:10813   */\n    tag_84:\n        /* \"#utility.yul\":10688:10694   */\n      0x00\n        /* \"#utility.yul\":10721:10772   */\n      tag_205\n        /* \"#utility.yul\":10769:10770   */\n      0x00\n        /* \"#utility.yul\":10765:10771   */\n      not\n        /* \"#utility.yul\":10757:10762   */\n      dup5\n        /* \"#utility.yul\":10754:10755   */\n      0x08\n        /* \"#utility.yul\":10750:10763   */\n      mul\n        /* \"#utility.yul\":10721:10772   */\n      tag_83\n      jump\t// in\n    tag_205:\n        /* \"#utility.yul\":10717:10773   */\n      not\n        /* \"#utility.yul\":10802:10806   */\n      dup1\n        /* \"#utility.yul\":10796:10800   */\n      dup4\n        /* \"#utility.yul\":10792:10807   */\n      and\n        /* \"#utility.yul\":10782:10807   */\n      swap2\n      pop\n        /* \"#utility.yul\":10695:10813   */\n      pop\n        /* \"#utility.yul\":10644:10813   */\n      swap3\n      swap2\n      pop\n      pop\n      jump\t// out\n        /* \"#utility.yul\":10818:11113   */\n    tag_85:\n        /* \"#utility.yul\":10894:10898   */\n      0x00\n        /* \"#utility.yul\":11040:11069   */\n      tag_207\n        /* \"#utility.yul\":11065:11068   */\n      dup4\n        /* \"#utility.yul\":11059:11063   */\n      dup4\n        /* \"#utility.yul\":11040:11069   */\n      tag_84\n      jump\t// in\n    tag_207:\n        /* \"#utility.yul\":11032:11069   */\n      swap2\n      pop\n        /* \"#utility.yul\":11102:11105   */\n      dup3\n        /* \"#utility.yul\":11099:11100   */\n      0x02\n        /* \"#utility.yul\":11095:11106   */\n      mul\n        /* \"#utility.yul\":11089:11093   */\n      dup3\n        /* \"#utility.yul\":11086:11107   */\n      or\n        /* \"#utility.yul\":11078:11107   */\n      swap1\n      pop\n        /* \"#utility.yul\":10818:11113   */\n      swap3\n      swap2\n      pop\n      pop\n      jump\t// out\n        /* \"#utility.yul\":11118:12513   */\n    tag_44:\n        /* \"#utility.yul\":11235:11272   */\n      tag_209\n        /* \"#utility.yul\":11268:11271   */\n      dup3\n        /* \"#utility.yul\":11235:11272   */\n      tag_51\n      jump\t// in\n    tag_209:\n        /* \"#utility.yul\":11337:11355   */\n      0xffffffffffffffff\n        /* \"#utility.yul\":11329:11335   */\n      dup2\n        /* \"#utility.yul\":11326:11356   */\n      gt\n        /* \"#utility.yul\":11323:11379   */\n      iszero\n      tag_210\n      jumpi\n        /* \"#utility.yul\":11359:11377   */\n      tag_211\n      tag_63\n      jump\t// in\n    tag_211:\n        /* \"#utility.yul\":11323:11379   */\n    tag_210:\n        /* \"#utility.yul\":11403:11441   */\n      tag_212\n        /* \"#utility.yul\":11435:11439   */\n      dup3\n        /* \"#utility.yul\":11429:11440   */\n      sload\n        /* \"#utility.yul\":11403:11441   */\n      tag_24\n      jump\t// in\n    tag_212:\n        /* \"#utility.yul\":11488:11555   */\n      tag_213\n        /* \"#utility.yul\":11548:11554   */\n      dup3\n        /* \"#utility.yul\":11540:11546   */\n      dup3\n        /* \"#utility.yul\":11534:11538   */\n      dup6\n        /* \"#utility.yul\":11488:11555   */\n      tag_82\n      jump\t// in\n    tag_213:\n        /* \"#utility.yul\":11582:11583   */\n      0x00\n        /* \"#utility.yul\":11606:11610   */\n      0x20\n        /* \"#utility.yul\":11593:11610   */\n      swap1\n      pop\n        /* \"#utility.yul\":11638:11640   */\n      0x1f\n        /* \"#utility.yul\":11630:11636   */\n      dup4\n        /* \"#utility.yul\":11627:11641   */\n      gt\n        /* \"#utility.yul\":11655:11656   */\n      0x01\n        /* \"#utility.yul\":11650:12268   */\n      dup2\n      eq\n      tag_215\n      jumpi\n        /* \"#utility.yul\":12312:12313   */\n      0x00\n        /* \"#utility.yul\":12329:12335   */\n      dup5\n        /* \"#utility.yul\":12326:12403   */\n      iszero\n      tag_216\n      jumpi\n        /* \"#utility.yul\":12378:12387   */\n      dup3\n        /* \"#utility.yul\":12373:12376   */\n      dup8\n        /* \"#utility.yul\":12369:12388   */\n      add\n        /* \"#utility.yul\":12363:12389   */\n      mload\n        /* \"#utility.yul\":12354:12389   */\n      swap1\n      pop\n        /* \"#utility.yul\":12326:12403   */\n    tag_216:\n        /* \"#utility.yul\":12429:12496   */\n      tag_217\n        /* \"#utility.yul\":12489:12495   */\n      dup6\n        /* \"#utility.yul\":12482:12487   */\n      dup3\n        /* \"#utility.yul\":12429:12496   */\n      tag_85\n      jump\t// in\n    tag_217:\n        /* \"#utility.yul\":12423:12427   */\n      dup7\n        /* \"#utility.yul\":12416:12497   */\n      sstore\n        /* \"#utility.yul\":12285:12507   */\n      pop\n        /* \"#utility.yul\":11620:12507   */\n      jump(tag_214)\n        /* \"#utility.yul\":11650:12268   */\n    tag_215:\n        /* \"#utility.yul\":11702:11706   */\n      0x1f\n        /* \"#utility.yul\":11698:11707   */\n      not\n        /* \"#utility.yul\":11690:11696   */\n      dup5\n        /* \"#utility.yul\":11686:11708   */\n      and\n        /* \"#utility.yul\":11736:11773   */\n      tag_218\n        /* \"#utility.yul\":11768:11772   */\n      dup7\n        /* \"#utility.yul\":11736:11773   */\n      tag_71\n      jump\t// in\n    tag_218:\n        /* \"#utility.yul\":11795:11796   */\n      0x00\n        /* \"#utility.yul\":11809:12017   */\n    tag_219:\n        /* \"#utility.yul\":11823:11830   */\n      dup3\n        /* \"#utility.yul\":11820:11821   */\n      dup2\n        /* \"#utility.yul\":11817:11831   */\n      lt\n        /* \"#utility.yul\":11809:12017   */\n      iszero\n      tag_221\n      jumpi\n        /* \"#utility.yul\":11902:11911   */\n      dup5\n        /* \"#utility.yul\":11897:11900   */\n      dup10\n        /* \"#utility.yul\":11893:11912   */\n      add\n        /* \"#utility.yul\":11887:11913   */\n      mload\n        /* \"#utility.yul\":11879:11885   */\n      dup3\n        /* \"#utility.yul\":11872:11914   */\n      sstore\n        /* \"#utility.yul\":11953:11954   */\n      0x01\n        /* \"#utility.yul\":11945:11951   */\n      dup3\n        /* \"#utility.yul\":11941:11955   */\n      add\n        /* \"#utility.yul\":11931:11955   */\n      swap2\n      pop\n        /* \"#utility.yul\":12000:12002   */\n      0x20\n        /* \"#utility.yul\":11989:11998   */\n      dup6\n        /* \"#utility.yul\":11985:12003   */\n      add\n        /* \"#utility.yul\":11972:12003   */\n      swap5\n      pop\n        /* \"#utility.yul\":11846:11850   */\n      0x20\n        /* \"#utility.yul\":11843:11844   */\n      dup2\n        /* \"#utility.yul\":11839:11851   */\n      add\n        /* \"#utility.yul\":11834:11851   */\n      swap1\n      pop\n        /* \"#utility.yul\":11809:12017   */\n      jump(tag_219)\n    tag_221:\n        /* \"#utility.yul\":12045:12051   */\n      dup7\n        /* \"#utility.yul\":12036:12043   */\n      dup4\n        /* \"#utility.yul\":12033:12052   */\n      lt\n        /* \"#utility.yul\":12030:12209   */\n      iszero\n      tag_222\n      jumpi\n        /* \"#utility.yul\":12103:12112   */\n      dup5\n        /* \"#utility.yul\":12098:12101   */\n      dup10\n        /* \"#utility.yul\":12094:12113   */\n      add\n        /* \"#utility.yul\":12088:12114   */\n      mload\n        /* \"#utility.yul\":12146:12194   */\n      tag_223\n        /* \"#utility.yul\":12188:12192   */\n      0x1f\n        /* \"#utility.yul\":12180:12186   */\n      dup10\n        /* \"#utility.yul\":12176:12193   */\n      and\n        /* \"#utility.yul\":12165:12174   */\n      dup3\n        /* \"#utility.yul\":12146:12194   */\n      tag_84\n      jump\t// in\n    tag_223:\n        /* \"#utility.yul\":12138:12144   */\n      dup4\n        /* \"#utility.yul\":12131:12195   */\n      sstore\n        /* \"#utility.yul\":12053:12209   */\n      pop\n        /* \"#utility.yul\":12030:12209   */\n    tag_222:\n        /* \"#utility.yul\":12255:12256   */\n      0x01\n        /* \"#utility.yul\":12251:12252   */\n      0x02\n        /* \"#utility.yul\":12243:12249   */\n      dup9\n        /* \"#utility.yul\":12239:12253   */\n      mul\n        /* \"#utility.yul\":12235:12257   */\n      add\n        /* \"#utility.yul\":12229:12233   */\n      dup9\n        /* \"#utility.yul\":12222:12258   */\n      sstore\n        /* \"#utility.yul\":11657:12268   */\n      pop\n      pop\n      pop\n        /* \"#utility.yul\":11620:12507   */\n    tag_214:\n      pop\n        /* \"#utility.yul\":11210:12513   */\n      pop\n      pop\n      pop\n        /* \"#utility.yul\":11118:12513   */\n      pop\n      pop\n      jump\t// out\n\n    auxdata: 0xa2646970667358221220a1b4040731fe419ec55b9ef8dc5b20af2b57a86af139b237668def5e354f525964736f6c63430008180033\n}\n",
				"bytecode": {
					"linkReferences": {},
					"object": "608060405234801561000f575f80fd5b506109b38061001d5f395ff3fe608060405234801561000f575f80fd5b506004361061003f575f3560e01c806306ead22e14610043578063642f91631461007557806394036fd5146100a5575b5f80fd5b61005d6004803603810190610058919061032b565b6100c1565b60405161006c939291906103ef565b60405180910390f35b61008f600480360381019061008a919061032b565b61017b565b60405161009c91906104cf565b60405180910390f35b6100bf60048036038101906100ba919061061b565b610257565b005b5f81815481106100cf575f80fd5b905f5260205f2090600302015f91509050805f0180546100ee906106b4565b80601f016020809104026020016040519081016040528092919081815260200182805461011a906106b4565b80156101655780601f1061013c57610100808354040283529160200191610165565b820191905f5260205f20905b81548152906001019060200180831161014857829003601f168201915b5050505050908060010154908060020154905083565b6101836102c8565b5f8281548110610196576101956106e4565b5b905f5260205f2090600302016040518060600160405290815f820180546101bc906106b4565b80601f01602080910402602001604051908101604052809291908181526020018280546101e8906106b4565b80156102335780601f1061020a57610100808354040283529160200191610233565b820191905f5260205f20905b81548152906001019060200180831161021657829003601f168201915b50505050508152602001600182015481526020016002820154815250509050919050565b5f604051806060016040528085815260200184815260200183815250908060018154018082558091505060019003905f5260205f2090600302015f909190919091505f820151815f0190816102ac91906108ae565b5060208201518160010155604082015181600201555050505050565b6040518060600160405280606081526020015f81526020015f81525090565b5f604051905090565b5f80fd5b5f80fd5b5f819050919050565b61030a816102f8565b8114610314575f80fd5b50565b5f8135905061032581610301565b92915050565b5f602082840312156103405761033f6102f0565b5b5f61034d84828501610317565b91505092915050565b5f81519050919050565b5f82825260208201905092915050565b5f5b8381101561038d578082015181840152602081019050610372565b5f8484015250505050565b5f601f19601f8301169050919050565b5f6103b282610356565b6103bc8185610360565b93506103cc818560208601610370565b6103d581610398565b840191505092915050565b6103e9816102f8565b82525050565b5f6060820190508181035f83015261040781866103a8565b905061041660208301856103e0565b61042360408301846103e0565b949350505050565b5f82825260208201905092915050565b5f61044582610356565b61044f818561042b565b935061045f818560208601610370565b61046881610398565b840191505092915050565b61047c816102f8565b82525050565b5f606083015f8301518482035f86015261049c828261043b565b91505060208301516104b16020860182610473565b5060408301516104c46040860182610473565b508091505092915050565b5f6020820190508181035f8301526104e78184610482565b905092915050565b5f80fd5b5f80fd5b7f4e487b71000000000000000000000000000000000000000000000000000000005f52604160045260245ffd5b61052d82610398565b810181811067ffffffffffffffff8211171561054c5761054b6104f7565b5b80604052505050565b5f61055e6102e7565b905061056a8282610524565b919050565b5f67ffffffffffffffff821115610589576105886104f7565b5b61059282610398565b9050602081019050919050565b828183375f83830152505050565b5f6105bf6105ba8461056f565b610555565b9050828152602081018484840111156105db576105da6104f3565b5b6105e684828561059f565b509392505050565b5f82601f830112610602576106016104ef565b5b81356106128482602086016105ad565b91505092915050565b5f805f60608486031215610632576106316102f0565b5b5f84013567ffffffffffffffff81111561064f5761064e6102f4565b5b61065b868287016105ee565b935050602061066c86828701610317565b925050604061067d86828701610317565b9150509250925092565b7f4e487b71000000000000000000000000000000000000000000000000000000005f52602260045260245ffd5b5f60028204905060018216806106cb57607f821691505b6020821081036106de576106dd610687565b5b50919050565b7f4e487b71000000000000000000000000000000000000000000000000000000005f52603260045260245ffd5b5f819050815f5260205f209050919050565b5f6020601f8301049050919050565b5f82821b905092915050565b5f6008830261076d7fffffffffffffffffffffffffffffffffffffffffffffffffffffffffffffffff82610732565b6107778683610732565b95508019841693508086168417925050509392505050565b5f819050919050565b5f6107b26107ad6107a8846102f8565b61078f565b6102f8565b9050919050565b5f819050919050565b6107cb83610798565b6107df6107d7826107b9565b84845461073e565b825550505050565b5f90565b6107f36107e7565b6107fe8184846107c2565b505050565b5b81811015610821576108165f826107eb565b600181019050610804565b5050565b601f8211156108665761083781610711565b61084084610723565b8101602085101561084f578190505b61086361085b85610723565b830182610803565b50505b505050565b5f82821c905092915050565b5f6108865f198460080261086b565b1980831691505092915050565b5f61089e8383610877565b9150826002028217905092915050565b6108b782610356565b67ffffffffffffffff8111156108d0576108cf6104f7565b5b6108da82546106b4565b6108e5828285610825565b5f60209050601f831160018114610916575f8415610904578287015190505b61090e8582610893565b865550610975565b601f19841661092486610711565b5f5b8281101561094b57848901518255600182019150602085019450602081019050610926565b868310156109685784890151610964601f891682610877565b8355505b6001600288020188555050505b50505050505056fea2646970667358221220a1b4040731fe419ec55b9ef8dc5b20af2b57a86af139b237668def5e354f525964736f6c63430008180033",
					"opcodes": "PUSH1 0x80 PUSH1 0x40 MSTORE CALLVALUE DUP1 ISZERO PUSH2 0xF JUMPI PUSH0 DUP1 REVERT JUMPDEST POP PUSH2 0x9B3 DUP1 PUSH2 0x1D PUSH0 CODECOPY PUSH0 RETURN INVALID PUSH1 0x80 PUSH1 0x40 MSTORE CALLVALUE DUP1 ISZERO PUSH2 0xF JUMPI PUSH0 DUP1 REVERT JUMPDEST POP PUSH1 0x4 CALLDATASIZE LT PUSH2 0x3F JUMPI PUSH0 CALLDATALOAD PUSH1 0xE0 SHR DUP1 PUSH4 0x6EAD22E EQ PUSH2 0x43 JUMPI DUP1 PUSH4 0x642F9163 EQ PUSH2 0x75 JUMPI DUP1 PUSH4 0x94036FD5 EQ PUSH2 0xA5 JUMPI JUMPDEST PUSH0 DUP1 REVERT JUMPDEST PUSH2 0x5D PUSH1 0x4 DUP1 CALLDATASIZE SUB DUP2 ADD SWAP1 PUSH2 0x58 SWAP2 SWAP1 PUSH2 0x32B JUMP JUMPDEST PUSH2 0xC1 JUMP JUMPDEST PUSH1 0x40 MLOAD PUSH2 0x6C SWAP4 SWAP3 SWAP2 SWAP1 PUSH2 0x3EF JUMP JUMPDEST PUSH1 0x40 MLOAD DUP1 SWAP2 SUB SWAP1 RETURN JUMPDEST PUSH2 0x8F PUSH1 0x4 DUP1 CALLDATASIZE SUB DUP2 ADD SWAP1 PUSH2 0x8A SWAP2 SWAP1 PUSH2 0x32B JUMP JUMPDEST PUSH2 0x17B JUMP JUMPDEST PUSH1 0x40 MLOAD PUSH2 0x9C SWAP2 SWAP1 PUSH2 0x4CF JUMP JUMPDEST PUSH1 0x40 MLOAD DUP1 SWAP2 SUB SWAP1 RETURN JUMPDEST PUSH2 0xBF PUSH1 0x4 DUP1 CALLDATASIZE SUB DUP2 ADD SWAP1 PUSH2 0xBA SWAP2 SWAP1 PUSH2 0x61B JUMP JUMPDEST PUSH2 0x257 JUMP JUMPDEST STOP JUMPDEST PUSH0 DUP2 DUP2 SLOAD DUP2 LT PUSH2 0xCF JUMPI PUSH0 DUP1 REVERT JUMPDEST SWAP1 PUSH0 MSTORE PUSH1 0x20 PUSH0 KECCAK256 SWAP1 PUSH1 0x3 MUL ADD PUSH0 SWAP2 POP SWAP1 POP DUP1 PUSH0 ADD DUP1 SLOAD PUSH2 0xEE SWAP1 PUSH2 0x6B4 JUMP JUMPDEST DUP1 PUSH1 0x1F ADD PUSH1 0x20 DUP1 SWAP2 DIV MUL PUSH1 0x20 ADD PUSH1 0x40 MLOAD SWAP1 DUP2 ADD PUSH1 0x40 MSTORE DUP1 SWAP3 SWAP2 SWAP1 DUP2 DUP2 MSTORE PUSH1 0x20 ADD DUP3 DUP1 SLOAD PUSH2 0x11A SWAP1 PUSH2 0x6B4 JUMP JUMPDEST DUP1 ISZERO PUSH2 0x165 JUMPI DUP1 PUSH1 0x1F LT PUSH2 0x13C JUMPI PUSH2 0x100 DUP1 DUP4 SLOAD DIV MUL DUP4 MSTORE SWAP2 PUSH1 0x20 ADD SWAP2 PUSH2 0x165 JUMP JUMPDEST DUP3 ADD SWAP2 SWAP1 PUSH0 MSTORE PUSH1 0x20 PUSH0 KECCAK256 SWAP1 JUMPDEST DUP2 SLOAD DUP2 MSTORE SWAP1 PUSH1 0x1 ADD SWAP1 PUSH1 0x20 ADD DUP1 DUP4 GT PUSH2 0x148 JUMPI DUP3 SWAP1 SUB PUSH1 0x1F AND DUP3 ADD SWAP2 JUMPDEST POP POP POP POP POP SWAP1 DUP1 PUSH1 0x1 ADD SLOAD SWAP1 DUP1 PUSH1 0x2 ADD SLOAD SWAP1 POP DUP4 JUMP JUMPDEST PUSH2 0x183 PUSH2 0x2C8 JUMP JUMPDEST PUSH0 DUP3 DUP2 SLOAD DUP2 LT PUSH2 0x196 JUMPI PUSH2 0x195 PUSH2 0x6E4 JUMP JUMPDEST JUMPDEST SWAP1 PUSH0 MSTORE PUSH1 0x20 PUSH0 KECCAK256 SWAP1 PUSH1 0x3 MUL ADD PUSH1 0x40 MLOAD DUP1 PUSH1 0x60 ADD PUSH1 0x40 MSTORE SWAP1 DUP2 PUSH0 DUP3 ADD DUP1 SLOAD PUSH2 0x1BC SWAP1 PUSH2 0x6B4 JUMP JUMPDEST DUP1 PUSH1 0x1F ADD PUSH1 0x20 DUP1 SWAP2 DIV MUL PUSH1 0x20 ADD PUSH1 0x40 MLOAD SWAP1 DUP2 ADD PUSH1 0x40 MSTORE DUP1 SWAP3 SWAP2 SWAP1 DUP2 DUP2 MSTORE PUSH1 0x20 ADD DUP3 DUP1 SLOAD PUSH2 0x1E8 SWAP1 PUSH2 0x6B4 JUMP JUMPDEST DUP1 ISZERO PUSH2 0x233 JUMPI DUP1 PUSH1 0x1F LT PUSH2 0x20A JUMPI PUSH2 0x100 DUP1 DUP4 SLOAD DIV MUL DUP4 MSTORE SWAP2 PUSH1 0x20 ADD SWAP2 PUSH2 0x233 JUMP JUMPDEST DUP3 ADD SWAP2 SWAP1 PUSH0 MSTORE PUSH1 0x20 PUSH0 KECCAK256 SWAP1 JUMPDEST DUP2 SLOAD DUP2 MSTORE SWAP1 PUSH1 0x1 ADD SWAP1 PUSH1 0x20 ADD DUP1 DUP4 GT PUSH2 0x216 JUMPI DUP3 SWAP1 SUB PUSH1 0x1F AND DUP3 ADD SWAP2 JUMPDEST POP POP POP POP POP DUP2 MSTORE PUSH1 0x20 ADD PUSH1 0x1 DUP3 ADD SLOAD DUP2 MSTORE PUSH1 0x20 ADD PUSH1 0x2 DUP3 ADD SLOAD DUP2 MSTORE POP POP SWAP1 POP SWAP2 SWAP1 POP JUMP JUMPDEST PUSH0 PUSH1 0x40 MLOAD DUP1 PUSH1 0x60 ADD PUSH1 0x40 MSTORE DUP1 DUP6 DUP2 MSTORE PUSH1 0x20 ADD DUP5 DUP2 MSTORE PUSH1 0x20 ADD DUP4 DUP2 MSTORE POP SWAP1 DUP1 PUSH1 0x1 DUP2 SLOAD ADD DUP1 DUP3 SSTORE DUP1 SWAP2 POP POP PUSH1 0x1 SWAP1 SUB SWAP1 PUSH0 MSTORE PUSH1 0x20 PUSH0 KECCAK256 SWAP1 PUSH1 0x3 MUL ADD PUSH0 SWAP1 SWAP2 SWAP1 SWAP2 SWAP1 SWAP2 POP PUSH0 DUP3 ADD MLOAD DUP2 PUSH0 ADD SWAP1 DUP2 PUSH2 0x2AC SWAP2 SWAP1 PUSH2 0x8AE JUMP JUMPDEST POP PUSH1 0x20 DUP3 ADD MLOAD DUP2 PUSH1 0x1 ADD SSTORE PUSH1 0x40 DUP3 ADD MLOAD DUP2 PUSH1 0x2 ADD SSTORE POP POP POP POP POP JUMP JUMPDEST PUSH1 0x40 MLOAD DUP1 PUSH1 0x60 ADD PUSH1 0x40 MSTORE DUP1 PUSH1 0x60 DUP2 MSTORE PUSH1 0x20 ADD PUSH0 DUP2 MSTORE PUSH1 0x20 ADD PUSH0 DUP2 MSTORE POP SWAP1 JUMP JUMPDEST PUSH0 PUSH1 0x40 MLOAD SWAP1 POP SWAP1 JUMP JUMPDEST PUSH0 DUP1 REVERT JUMPDEST PUSH0 DUP1 REVERT JUMPDEST PUSH0 DUP2 SWAP1 POP SWAP2 SWAP1 POP JUMP JUMPDEST PUSH2 0x30A DUP2 PUSH2 0x2F8 JUMP JUMPDEST DUP2 EQ PUSH2 0x314 JUMPI PUSH0 DUP1 REVERT JUMPDEST POP JUMP JUMPDEST PUSH0 DUP2 CALLDATALOAD SWAP1 POP PUSH2 0x325 DUP2 PUSH2 0x301 JUMP JUMPDEST SWAP3 SWAP2 POP POP JUMP JUMPDEST PUSH0 PUSH1 0x20 DUP3 DUP5 SUB SLT ISZERO PUSH2 0x340 JUMPI PUSH2 0x33F PUSH2 0x2F0 JUMP JUMPDEST JUMPDEST PUSH0 PUSH2 0x34D DUP5 DUP3 DUP6 ADD PUSH2 0x317 JUMP JUMPDEST SWAP2 POP POP SWAP3 SWAP2 POP POP JUMP JUMPDEST PUSH0 DUP2 MLOAD SWAP1 POP SWAP2 SWAP1 POP JUMP JUMPDEST PUSH0 DUP3 DUP3 MSTORE PUSH1 0x20 DUP3 ADD SWAP1 POP SWAP3 SWAP2 POP POP JUMP JUMPDEST PUSH0 JUMPDEST DUP4 DUP2 LT ISZERO PUSH2 0x38D JUMPI DUP1 DUP3 ADD MLOAD DUP2 DUP5 ADD MSTORE PUSH1 0x20 DUP2 ADD SWAP1 POP PUSH2 0x372 JUMP JUMPDEST PUSH0 DUP5 DUP5 ADD MSTORE POP POP POP POP JUMP JUMPDEST PUSH0 PUSH1 0x1F NOT PUSH1 0x1F DUP4 ADD AND SWAP1 POP SWAP2 SWAP1 POP JUMP JUMPDEST PUSH0 PUSH2 0x3B2 DUP3 PUSH2 0x356 JUMP JUMPDEST PUSH2 0x3BC DUP2 DUP6 PUSH2 0x360 JUMP JUMPDEST SWAP4 POP PUSH2 0x3CC DUP2 DUP6 PUSH1 0x20 DUP7 ADD PUSH2 0x370 JUMP JUMPDEST PUSH2 0x3D5 DUP2 PUSH2 0x398 JUMP JUMPDEST DUP5 ADD SWAP2 POP POP SWAP3 SWAP2 POP POP JUMP JUMPDEST PUSH2 0x3E9 DUP2 PUSH2 0x2F8 JUMP JUMPDEST DUP3 MSTORE POP POP JUMP JUMPDEST PUSH0 PUSH1 0x60 DUP3 ADD SWAP1 POP DUP2 DUP2 SUB PUSH0 DUP4 ADD MSTORE PUSH2 0x407 DUP2 DUP7 PUSH2 0x3A8 JUMP JUMPDEST SWAP1 POP PUSH2 0x416 PUSH1 0x20 DUP4 ADD DUP6 PUSH2 0x3E0 JUMP JUMPDEST PUSH2 0x423 PUSH1 0x40 DUP4 ADD DUP5 PUSH2 0x3E0 JUMP JUMPDEST SWAP5 SWAP4 POP POP POP POP JUMP JUMPDEST PUSH0 DUP3 DUP3 MSTORE PUSH1 0x20 DUP3 ADD SWAP1 POP SWAP3 SWAP2 POP POP JUMP JUMPDEST PUSH0 PUSH2 0x445 DUP3 PUSH2 0x356 JUMP JUMPDEST PUSH2 0x44F DUP2 DUP6 PUSH2 0x42B JUMP JUMPDEST SWAP4 POP PUSH2 0x45F DUP2 DUP6 PUSH1 0x20 DUP7 ADD PUSH2 0x370 JUMP JUMPDEST PUSH2 0x468 DUP2 PUSH2 0x398 JUMP JUMPDEST DUP5 ADD SWAP2 POP POP SWAP3 SWAP2 POP POP JUMP JUMPDEST PUSH2 0x47C DUP2 PUSH2 0x2F8 JUMP JUMPDEST DUP3 MSTORE POP POP JUMP JUMPDEST PUSH0 PUSH1 0x60 DUP4 ADD PUSH0 DUP4 ADD MLOAD DUP5 DUP3 SUB PUSH0 DUP7 ADD MSTORE PUSH2 0x49C DUP3 DUP3 PUSH2 0x43B JUMP JUMPDEST SWAP2 POP POP PUSH1 0x20 DUP4 ADD MLOAD PUSH2 0x4B1 PUSH1 0x20 DUP7 ADD DUP3 PUSH2 0x473 JUMP JUMPDEST POP PUSH1 0x40 DUP4 ADD MLOAD PUSH2 0x4C4 PUSH1 0x40 DUP7 ADD DUP3 PUSH2 0x473 JUMP JUMPDEST POP DUP1 SWAP2 POP POP SWAP3 SWAP2 POP POP JUMP JUMPDEST PUSH0 PUSH1 0x20 DUP3 ADD SWAP1 POP DUP2 DUP2 SUB PUSH0 DUP4 ADD MSTORE PUSH2 0x4E7 DUP2 DUP5 PUSH2 0x482 JUMP JUMPDEST SWAP1 POP SWAP3 SWAP2 POP POP JUMP JUMPDEST PUSH0 DUP1 REVERT JUMPDEST PUSH0 DUP1 REVERT JUMPDEST PUSH32 0x4E487B7100000000000000000000000000000000000000000000000000000000 PUSH0 MSTORE PUSH1 0x41 PUSH1 0x4 MSTORE PUSH1 0x24 PUSH0 REVERT JUMPDEST PUSH2 0x52D DUP3 PUSH2 0x398 JUMP JUMPDEST DUP2 ADD DUP2 DUP2 LT PUSH8 0xFFFFFFFFFFFFFFFF DUP3 GT OR ISZERO PUSH2 0x54C JUMPI PUSH2 0x54B PUSH2 0x4F7 JUMP JUMPDEST JUMPDEST DUP1 PUSH1 0x40 MSTORE POP POP POP JUMP JUMPDEST PUSH0 PUSH2 0x55E PUSH2 0x2E7 JUMP JUMPDEST SWAP1 POP PUSH2 0x56A DUP3 DUP3 PUSH2 0x524 JUMP JUMPDEST SWAP2 SWAP1 POP JUMP JUMPDEST PUSH0 PUSH8 0xFFFFFFFFFFFFFFFF DUP3 GT ISZERO PUSH2 0x589 JUMPI PUSH2 0x588 PUSH2 0x4F7 JUMP JUMPDEST JUMPDEST PUSH2 0x592 DUP3 PUSH2 0x398 JUMP JUMPDEST SWAP1 POP PUSH1 0x20 DUP2 ADD SWAP1 POP SWAP2 SWAP1 POP JUMP JUMPDEST DUP3 DUP2 DUP4 CALLDATACOPY PUSH0 DUP4 DUP4 ADD MSTORE POP POP POP JUMP JUMPDEST PUSH0 PUSH2 0x5BF PUSH2 0x5BA DUP5 PUSH2 0x56F JUMP JUMPDEST PUSH2 0x555 JUMP JUMPDEST SWAP1 POP DUP3 DUP2 MSTORE PUSH1 0x20 DUP2 ADD DUP5 DUP5 DUP5 ADD GT ISZERO PUSH2 0x5DB JUMPI PUSH2 0x5DA PUSH2 0x4F3 JUMP JUMPDEST JUMPDEST PUSH2 0x5E6 DUP5 DUP3 DUP6 PUSH2 0x59F JUMP JUMPDEST POP SWAP4 SWAP3 POP POP POP JUMP JUMPDEST PUSH0 DUP3 PUSH1 0x1F DUP4 ADD SLT PUSH2 0x602 JUMPI PUSH2 0x601 PUSH2 0x4EF JUMP JUMPDEST JUMPDEST DUP2 CALLDATALOAD PUSH2 0x612 DUP5 DUP3 PUSH1 0x20 DUP7 ADD PUSH2 0x5AD JUMP JUMPDEST SWAP2 POP POP SWAP3 SWAP2 POP POP JUMP JUMPDEST PUSH0 DUP1 PUSH0 PUSH1 0x60 DUP5 DUP7 SUB SLT ISZERO PUSH2 0x632 JUMPI PUSH2 0x631 PUSH2 0x2F0 JUMP JUMPDEST JUMPDEST PUSH0 DUP5 ADD CALLDATALOAD PUSH8 0xFFFFFFFFFFFFFFFF DUP2 GT ISZERO PUSH2 0x64F JUMPI PUSH2 0x64E PUSH2 0x2F4 JUMP JUMPDEST JUMPDEST PUSH2 0x65B DUP7 DUP3 DUP8 ADD PUSH2 0x5EE JUMP JUMPDEST SWAP4 POP POP PUSH1 0x20 PUSH2 0x66C DUP7 DUP3 DUP8 ADD PUSH2 0x317 JUMP JUMPDEST SWAP3 POP POP PUSH1 0x40 PUSH2 0x67D DUP7 DUP3 DUP8 ADD PUSH2 0x317 JUMP JUMPDEST SWAP2 POP POP SWAP3 POP SWAP3 POP SWAP3 JUMP JUMPDEST PUSH32 0x4E487B7100000000000000000000000000000000000000000000000000000000 PUSH0 MSTORE PUSH1 0x22 PUSH1 0x4 MSTORE PUSH1 0x24 PUSH0 REVERT JUMPDEST PUSH0 PUSH1 0x2 DUP3 DIV SWAP1 POP PUSH1 0x1 DUP3 AND DUP1 PUSH2 0x6CB JUMPI PUSH1 0x7F DUP3 AND SWAP2 POP JUMPDEST PUSH1 0x20 DUP3 LT DUP2 SUB PUSH2 0x6DE JUMPI PUSH2 0x6DD PUSH2 0x687 JUMP JUMPDEST JUMPDEST POP SWAP2 SWAP1 POP JUMP JUMPDEST PUSH32 0x4E487B7100000000000000000000000000000000000000000000000000000000 PUSH0 MSTORE PUSH1 0x32 PUSH1 0x4 MSTORE PUSH1 0x24 PUSH0 REVERT JUMPDEST PUSH0 DUP2 SWAP1 POP DUP2 PUSH0 MSTORE PUSH1 0x20 PUSH0 KECCAK256 SWAP1 POP SWAP2 SWAP1 POP JUMP JUMPDEST PUSH0 PUSH1 0x20 PUSH1 0x1F DUP4 ADD DIV SWAP1 POP SWAP2 SWAP1 POP JUMP JUMPDEST PUSH0 DUP3 DUP3 SHL SWAP1 POP SWAP3 SWAP2 POP POP JUMP JUMPDEST PUSH0 PUSH1 0x8 DUP4 MUL PUSH2 0x76D PUSH32 0xFFFFFFFFFFFFFFFFFFFFFFFFFFFFFFFFFFFFFFFFFFFFFFFFFFFFFFFFFFFFFFFF DUP3 PUSH2 0x732 JUMP JUMPDEST PUSH2 0x777 DUP7 DUP4 PUSH2 0x732 JUMP JUMPDEST SWAP6 POP DUP1 NOT DUP5 AND SWAP4 POP DUP1 DUP7 AND DUP5 OR SWAP3 POP POP POP SWAP4 SWAP3 POP POP POP JUMP JUMPDEST PUSH0 DUP2 SWAP1 POP SWAP2 SWAP1 POP JUMP JUMPDEST PUSH0 PUSH2 0x7B2 PUSH2 0x7AD PUSH2 0x7A8 DUP5 PUSH2 0x2F8 JUMP JUMPDEST PUSH2 0x78F JUMP JUMPDEST PUSH2 0x2F8 JUMP JUMPDEST SWAP1 POP SWAP2 SWAP1 POP JUMP JUMPDEST PUSH0 DUP2 SWAP1 POP SWAP2 SWAP1 POP JUMP JUMPDEST PUSH2 0x7CB DUP4 PUSH2 0x798 JUMP JUMPDEST PUSH2 0x7DF PUSH2 0x7D7 DUP3 PUSH2 0x7B9 JUMP JUMPDEST DUP5 DUP5 SLOAD PUSH2 0x73E JUMP JUMPDEST DUP3 SSTORE POP POP POP POP JUMP JUMPDEST PUSH0 SWAP1 JUMP JUMPDEST PUSH2 0x7F3 PUSH2 0x7E7 JUMP JUMPDEST PUSH2 0x7FE DUP2 DUP5 DUP5 PUSH2 0x7C2 JUMP JUMPDEST POP POP POP JUMP JUMPDEST JUMPDEST DUP2 DUP2 LT ISZERO PUSH2 0x821 JUMPI PUSH2 0x816 PUSH0 DUP3 PUSH2 0x7EB JUMP JUMPDEST PUSH1 0x1 DUP2 ADD SWAP1 POP PUSH2 0x804 JUMP JUMPDEST POP POP JUMP JUMPDEST PUSH1 0x1F DUP3 GT ISZERO PUSH2 0x866 JUMPI PUSH2 0x837 DUP2 PUSH2 0x711 JUMP JUMPDEST PUSH2 0x840 DUP5 PUSH2 0x723 JUMP JUMPDEST DUP2 ADD PUSH1 0x20 DUP6 LT ISZERO PUSH2 0x84F JUMPI DUP2 SWAP1 POP JUMPDEST PUSH2 0x863 PUSH2 0x85B DUP6 PUSH2 0x723 JUMP JUMPDEST DUP4 ADD DUP3 PUSH2 0x803 JUMP JUMPDEST POP POP JUMPDEST POP POP POP JUMP JUMPDEST PUSH0 DUP3 DUP3 SHR SWAP1 POP SWAP3 SWAP2 POP POP JUMP JUMPDEST PUSH0 PUSH2 0x886 PUSH0 NOT DUP5 PUSH1 0x8 MUL PUSH2 0x86B JUMP JUMPDEST NOT DUP1 DUP4 AND SWAP2 POP POP SWAP3 SWAP2 POP POP JUMP JUMPDEST PUSH0 PUSH2 0x89E DUP4 DUP4 PUSH2 0x877 JUMP JUMPDEST SWAP2 POP DUP3 PUSH1 0x2 MUL DUP3 OR SWAP1 POP SWAP3 SWAP2 POP POP JUMP JUMPDEST PUSH2 0x8B7 DUP3 PUSH2 0x356 JUMP JUMPDEST PUSH8 0xFFFFFFFFFFFFFFFF DUP2 GT ISZERO PUSH2 0x8D0 JUMPI PUSH2 0x8CF PUSH2 0x4F7 JUMP JUMPDEST JUMPDEST PUSH2 0x8DA DUP3 SLOAD PUSH2 0x6B4 JUMP JUMPDEST PUSH2 0x8E5 DUP3 DUP3 DUP6 PUSH2 0x825 JUMP JUMPDEST PUSH0 PUSH1 0x20 SWAP1 POP PUSH1 0x1F DUP4 GT PUSH1 0x1 DUP2 EQ PUSH2 0x916 JUMPI PUSH0 DUP5 ISZERO PUSH2 0x904 JUMPI DUP3 DUP8 ADD MLOAD SWAP1 POP JUMPDEST PUSH2 0x90E DUP6 DUP3 PUSH2 0x893 JUMP JUMPDEST DUP7 SSTORE POP PUSH2 0x975 JUMP JUMPDEST PUSH1 0x1F NOT DUP5 AND PUSH2 0x924 DUP7 PUSH2 0x711 JUMP JUMPDEST PUSH0 JUMPDEST DUP3 DUP2 LT ISZERO PUSH2 0x94B JUMPI DUP5 DUP10 ADD MLOAD DUP3 SSTORE PUSH1 0x1 DUP3 ADD SWAP2 POP PUSH1 0x20 DUP6 ADD SWAP5 POP PUSH1 0x20 DUP2 ADD SWAP1 POP PUSH2 0x926 JUMP JUMPDEST DUP7 DUP4 LT ISZERO PUSH2 0x968 JUMPI DUP5 DUP10 ADD MLOAD PUSH2 0x964 PUSH1 0x1F DUP10 AND DUP3 PUSH2 0x877 JUMP JUMPDEST DUP4 SSTORE POP JUMPDEST PUSH1 0x1 PUSH1 0x2 DUP9 MUL ADD DUP9 SSTORE POP POP POP JUMPDEST POP POP POP POP POP POP JUMP INVALID LOG2 PUSH5 0x6970667358 0x22 SLT KECCAK256 LOG1 0xB4 DIV SMOD BALANCE INVALID COINBASE SWAP15 0xC5 JUMPDEST SWAP15 0xF8 0xDC JUMPDEST KECCAK256 0xAF 0x2B JUMPI 0xA8 PUSH11 0xF139B237668DEF5E354F52 MSIZE PUSH5 0x736F6C6343 STOP ADDMOD XOR STOP CALLER "
				},
				"gasEstimates": {
					"creation": {
						"codeDepositCost": "496600",
						"executionCost": "528",
						"totalCost": "497128"
					},
					"external": {
						"addNewStudent(string,uint256,uint256)": "infinite",
						"getStudent(uint256)": "infinite",
						"students(uint256)": "infinite"
					}
				},
				"methodIdentifiers": {
					"addNewStudent(string,uint256,uint256)": "94036fd5",
					"getStudent(uint256)": "642f9163",
					"students(uint256)": "06ead22e"
				}
			},
			"storageLayout": {
				"storage": [
					{
						"astId": 12,
						"contract": "contracts/Classroom.sol:Classroom",
						"label": "students",
						"offset": 0,
						"slot": "0",
						"type": "t_array(t_struct(Student)8_storage)dyn_storage"
					}
				],
				"types": {
					"t_array(t_struct(Student)8_storage)dyn_storage": {
						"base": "t_struct(Student)8_storage",
						"encoding": "dynamic_array",
						"label": "struct Classroom.Student[]",
						"numberOfBytes": "32"
					},
					"t_string_storage": {
						"encoding": "bytes",
						"label": "string",
						"numberOfBytes": "32"
					},
					"t_struct(Student)8_storage": {
						"encoding": "inplace",
						"label": "struct Classroom.Student",
						"members": [
							{
								"astId": 3,
								"contract": "contracts/Classroom.sol:Classroom",
								"label": "name",
								"offset": 0,
								"slot": "0",
								"type": "t_string_storage"
							},
							{
								"astId": 5,
								"contract": "contracts/Classroom.sol:Classroom",
								"label": "age",
								"offset": 0,
								"slot": "1",
								"type": "t_uint256"
							},
							{
								"astId": 7,
								"contract": "contracts/Classroom.sol:Classroom",
								"label": "finalMark",
								"offset": 0,
								"slot": "2",
								"type": "t_uint256"
							}
						],
						"numberOfBytes": "96"
					},
					"t_uint256": {
						"encoding": "inplace",
						"label": "uint256",
						"numberOfBytes": "32"
					}
				}
			},
			"userdoc": {
				"kind": "user",
				"methods": {},
				"version": 1
			}
		}
	}
}