{
	"data": {
		"bytecode": {
			"linkReferences": {},
			"object": "608060405234801561000f575f80fd5b506113538061001d5f395ff3fe608060405234801561000f575f80fd5b506004361061004a575f3560e01c8063086eafae1461004e578063290c6a731461007e578063363b869f1461008857806378e83526146100a4575b5f80fd5b61006860048036038101906100639190610378565b6100d4565b604051610075919061041d565b60405180910390f35b61008661010e565b005b6100a2600480360381019061009d9190610572565b610199565b005b6100be60048036038101906100b991906105f2565b610243565b6040516100cb9190610706565b60405180910390f35b5f81815481106100e2575f80fd5b905f5260205f20015f915054906101000a900473ffffffffffffffffffffffffffffffffffffffff1681565b5f60405161011b90610308565b604051809103905ff080158015610134573d5f803e3d5ffd5b5090505f81908060018154018082558091505060019003905f5260205f20015f9091909190916101000a81548173ffffffffffffffffffffffffffffffffffffffff021916908373ffffffffffffffffffffffffffffffffffffffff16021790555050565b5f84815481106101ac576101ab610726565b5b905f5260205f20015f9054906101000a900473ffffffffffffffffffffffffffffffffffffffff1673ffffffffffffffffffffffffffffffffffffffff166394036fd58484846040518463ffffffff1660e01b8152600401610210939291906107aa565b5f604051808303815f87803b158015610227575f80fd5b505af1158015610239573d5f803e3d5ffd5b5050505050505050565b61024b610315565b5f838154811061025e5761025d610726565b5b905f5260205f20015f9054906101000a900473ffffffffffffffffffffffffffffffffffffffff1673ffffffffffffffffffffffffffffffffffffffff1663642f9163836040518263ffffffff1660e01b81526004016102be91906107e6565b5f60405180830381865afa1580156102d8573d5f803e3d5ffd5b505050506040513d5f823e3d601f19601f820116820180604052508101906103009190610906565b905092915050565b6109d08061094e83390190565b6040518060600160405280606081526020015f81526020015f81525090565b5f604051905090565b5f80fd5b5f80fd5b5f819050919050565b61035781610345565b8114610361575f80fd5b50565b5f813590506103728161034e565b92915050565b5f6020828403121561038d5761038c61033d565b5b5f61039a84828501610364565b91505092915050565b5f73ffffffffffffffffffffffffffffffffffffffff82169050919050565b5f819050919050565b5f6103e56103e06103db846103a3565b6103c2565b6103a3565b9050919050565b5f6103f6826103cb565b9050919050565b5f610407826103ec565b9050919050565b610417816103fd565b82525050565b5f6020820190506104305f83018461040e565b92915050565b5f80fd5b5f80fd5b5f601f19601f8301169050919050565b7f4e487b71000000000000000000000000000000000000000000000000000000005f52604160045260245ffd5b6104848261043e565b810181811067ffffffffffffffff821117156104a3576104a261044e565b5b80604052505050565b5f6104b5610334565b90506104c1828261047b565b919050565b5f67ffffffffffffffff8211156104e0576104df61044e565b5b6104e98261043e565b9050602081019050919050565b828183375f83830152505050565b5f610516610511846104c6565b6104ac565b9050828152602081018484840111156105325761053161043a565b5b61053d8482856104f6565b509392505050565b5f82601f83011261055957610558610436565b5b8135610569848260208601610504565b91505092915050565b5f805f806080858703121561058a5761058961033d565b5b5f61059787828801610364565b945050602085013567ffffffffffffffff8111156105b8576105b7610341565b5b6105c487828801610545565b93505060406105d587828801610364565b92505060606105e687828801610364565b91505092959194509250565b5f80604083850312156106085761060761033d565b5b5f61061585828601610364565b925050602061062685828601610364565b9150509250929050565b5f81519050919050565b5f82825260208201905092915050565b5f5b8381101561066757808201518184015260208101905061064c565b5f8484015250505050565b5f61067c82610630565b610686818561063a565b935061069681856020860161064a565b61069f8161043e565b840191505092915050565b6106b381610345565b82525050565b5f606083015f8301518482035f8601526106d38282610672565b91505060208301516106e860208601826106aa565b5060408301516106fb60408601826106aa565b508091505092915050565b5f6020820190508181035f83015261071e81846106b9565b905092915050565b7f4e487b71000000000000000000000000000000000000000000000000000000005f52603260045260245ffd5b5f82825260208201905092915050565b5f61076d82610630565b6107778185610753565b935061078781856020860161064a565b6107908161043e565b840191505092915050565b6107a481610345565b82525050565b5f6060820190508181035f8301526107c28186610763565b90506107d1602083018561079b565b6107de604083018461079b565b949350505050565b5f6020820190506107f95f83018461079b565b92915050565b5f80fd5b5f80fd5b5f610819610814846104c6565b6104ac565b9050828152602081018484840111156108355761083461043a565b5b61084084828561064a565b509392505050565b5f82601f83011261085c5761085b610436565b5b815161086c848260208601610807565b91505092915050565b5f815190506108838161034e565b92915050565b5f6060828403121561089e5761089d6107ff565b5b6108a860606104ac565b90505f82015167ffffffffffffffff8111156108c7576108c6610803565b5b6108d384828501610848565b5f8301525060206108e684828501610875565b60208301525060406108fa84828501610875565b60408301525092915050565b5f6020828403121561091b5761091a61033d565b5b5f82015167ffffffffffffffff81111561093857610937610341565b5b61094484828501610889565b9150509291505056fe608060405234801561000f575f80fd5b506109b38061001d5f395ff3fe608060405234801561000f575f80fd5b506004361061003f575f3560e01c806306ead22e14610043578063642f91631461007557806394036fd5146100a5575b5f80fd5b61005d6004803603810190610058919061032b565b6100c1565b60405161006c939291906103ef565b60405180910390f35b61008f600480360381019061008a919061032b565b61017b565b60405161009c91906104cf565b60405180910390f35b6100bf60048036038101906100ba919061061b565b610257565b005b5f81815481106100cf575f80fd5b905f5260205f2090600302015f91509050805f0180546100ee906106b4565b80601f016020809104026020016040519081016040528092919081815260200182805461011a906106b4565b80156101655780601f1061013c57610100808354040283529160200191610165565b820191905f5260205f20905b81548152906001019060200180831161014857829003601f168201915b5050505050908060010154908060020154905083565b6101836102c8565b5f8281548110610196576101956106e4565b5b905f5260205f2090600302016040518060600160405290815f820180546101bc906106b4565b80601f01602080910402602001604051908101604052809291908181526020018280546101e8906106b4565b80156102335780601f1061020a57610100808354040283529160200191610233565b820191905f5260205f20905b81548152906001019060200180831161021657829003601f168201915b50505050508152602001600182015481526020016002820154815250509050919050565b5f604051806060016040528085815260200184815260200183815250908060018154018082558091505060019003905f5260205f2090600302015f909190919091505f820151815f0190816102ac91906108ae565b5060208201518160010155604082015181600201555050505050565b6040518060600160405280606081526020015f81526020015f81525090565b5f604051905090565b5f80fd5b5f80fd5b5f819050919050565b61030a816102f8565b8114610314575f80fd5b50565b5f8135905061032581610301565b92915050565b5f602082840312156103405761033f6102f0565b5b5f61034d84828501610317565b91505092915050565b5f81519050919050565b5f82825260208201905092915050565b5f5b8381101561038d578082015181840152602081019050610372565b5f8484015250505050565b5f601f19601f8301169050919050565b5f6103b282610356565b6103bc8185610360565b93506103cc818560208601610370565b6103d581610398565b840191505092915050565b6103e9816102f8565b82525050565b5f6060820190508181035f83015261040781866103a8565b905061041660208301856103e0565b61042360408301846103e0565b949350505050565b5f82825260208201905092915050565b5f61044582610356565b61044f818561042b565b935061045f818560208601610370565b61046881610398565b840191505092915050565b61047c816102f8565b82525050565b5f606083015f8301518482035f86015261049c828261043b565b91505060208301516104b16020860182610473565b5060408301516104c46040860182610473565b508091505092915050565b5f6020820190508181035f8301526104e78184610482565b905092915050565b5f80fd5b5f80fd5b7f4e487b71000000000000000000000000000000000000000000000000000000005f52604160045260245ffd5b61052d82610398565b810181811067ffffffffffffffff8211171561054c5761054b6104f7565b5b80604052505050565b5f61055e6102e7565b905061056a8282610524565b919050565b5f67ffffffffffffffff821115610589576105886104f7565b5b61059282610398565b9050602081019050919050565b828183375f83830152505050565b5f6105bf6105ba8461056f565b610555565b9050828152602081018484840111156105db576105da6104f3565b5b6105e684828561059f565b509392505050565b5f82601f830112610602576106016104ef565b5b81356106128482602086016105ad565b91505092915050565b5f805f60608486031215610632576106316102f0565b5b5f84013567ffffffffffffffff81111561064f5761064e6102f4565b5b61065b868287016105ee565b935050602061066c86828701610317565b925050604061067d86828701610317565b9150509250925092565b7f4e487b71000000000000000000000000000000000000000000000000000000005f52602260045260245ffd5b5f60028204905060018216806106cb57607f821691505b6020821081036106de576106dd610687565b5b50919050565b7f4e487b71000000000000000000000000000000000000000000000000000000005f52603260045260245ffd5b5f819050815f5260205f209050919050565b5f6020601f8301049050919050565b5f82821b905092915050565b5f6008830261076d7fffffffffffffffffffffffffffffffffffffffffffffffffffffffffffffffff82610732565b6107778683610732565b95508019841693508086168417925050509392505050565b5f819050919050565b5f6107b26107ad6107a8846102f8565b61078f565b6102f8565b9050919050565b5f819050919050565b6107cb83610798565b6107df6107d7826107b9565b84845461073e565b825550505050565b5f90565b6107f36107e7565b6107fe8184846107c2565b505050565b5b81811015610821576108165f826107eb565b600181019050610804565b5050565b601f8211156108665761083781610711565b61084084610723565b8101602085101561084f578190505b61086361085b85610723565b830182610803565b50505b505050565b5f82821c905092915050565b5f6108865f198460080261086b565b1980831691505092915050565b5f61089e8383610877565b9150826002028217905092915050565b6108b782610356565b67ffffffffffffffff8111156108d0576108cf6104f7565b5b6108da82546106b4565b6108e5828285610825565b5f60209050601f831160018114610916575f8415610904578287015190505b61090e8582610893565b865550610975565b601f19841661092486610711565b5f5b8281101561094b57848901518255600182019150602085019450602081019050610926565b868310156109685784890151610964601f891682610877565b8355505b6001600288020188555050505b50505050505056fea2646970667358221220a1b4040731fe419ec55b9ef8dc5b20af2b57a86af139b237668def5e354f525964736f6c63430008180033a2646970667358221220f71f3507cc422bffd52f8d25e185703ab09294d786d5bda26daa4ff67f69a18a64736f6c63430008180033",
			"opcodes": "PUSH1 0x80 PUSH1 0x40 MSTORE CALLVALUE DUP1 ISZERO PUSH2 0xF JUMPI PUSH0 DUP1 REVERT JUMPDEST POP PUSH2 0x1353 DUP1 PUSH2 0x1D PUSH0 CODECOPY PUSH0 RETURN INVALID PUSH1 0x80 PUSH1 0x40 MSTORE CALLVALUE DUP1 ISZERO PUSH2 0xF JUMPI PUSH0 DUP1 REVERT JUMPDEST POP PUSH1 0x4 CALLDATASIZE LT PUSH2 0x4A JUMPI PUSH0 CALLDATALOAD PUSH1 0xE0 SHR DUP1 PUSH4 0x86EAFAE EQ PUSH2 0x4E JUMPI DUP1 PUSH4 0x290C6A73 EQ PUSH2 0x7E JUMPI DUP1 PUSH4 0x363B869F EQ PUSH2 0x88 JUMPI DUP1 PUSH4 0x78E83526 EQ PUSH2 0xA4 JUMPI JUMPDEST PUSH0 DUP1 REVERT JUMPDEST PUSH2 0x68 PUSH1 0x4 DUP1 CALLDATASIZE SUB DUP2 ADD SWAP1 PUSH2 0x63 SWAP2 SWAP1 PUSH2 0x378 JUMP JUMPDEST PUSH2 0xD4 JUMP JUMPDEST PUSH1 0x40 MLOAD PUSH2 0x75 SWAP2 SWAP1 PUSH2 0x41D JUMP JUMPDEST PUSH1 0x40 MLOAD DUP1 SWAP2 SUB SWAP1 RETURN JUMPDEST PUSH2 0x86 PUSH2 0x10E JUMP JUMPDEST STOP JUMPDEST PUSH2 0xA2 PUSH1 0x4 DUP1 CALLDATASIZE SUB DUP2 ADD SWAP1 PUSH2 0x9D SWAP2 SWAP1 PUSH2 0x572 JUMP JUMPDEST PUSH2 0x199 JUMP JUMPDEST STOP JUMPDEST PUSH2 0xBE PUSH1 0x4 DUP1 CALLDATASIZE SUB DUP2 ADD SWAP1 PUSH2 0xB9 SWAP2 SWAP1 PUSH2 0x5F2 JUMP JUMPDEST PUSH2 0x243 JUMP JUMPDEST PUSH1 0x40 MLOAD PUSH2 0xCB SWAP2 SWAP1 PUSH2 0x706 JUMP JUMPDEST PUSH1 0x40 MLOAD DUP1 SWAP2 SUB SWAP1 RETURN JUMPDEST PUSH0 DUP2 DUP2 SLOAD DUP2 LT PUSH2 0xE2 JUMPI PUSH0 DUP1 REVERT JUMPDEST SWAP1 PUSH0 MSTORE PUSH1 0x20 PUSH0 KECCAK256 ADD PUSH0 SWAP2 POP SLOAD SWAP1 PUSH2 0x100 EXP SWAP1 DIV PUSH20 0xFFFFFFFFFFFFFFFFFFFFFFFFFFFFFFFFFFFFFFFF AND DUP2 JUMP JUMPDEST PUSH0 PUSH1 0x40 MLOAD PUSH2 0x11B SWAP1 PUSH2 0x308 JUMP JUMPDEST PUSH1 0x40 MLOAD DUP1 SWAP2 SUB SWAP1 PUSH0 CREATE DUP1 ISZERO DUP1 ISZERO PUSH2 0x134 JUMPI RETURNDATASIZE PUSH0 DUP1 RETURNDATACOPY RETURNDATASIZE PUSH0 REVERT JUMPDEST POP SWAP1 POP PUSH0 DUP2 SWAP1 DUP1 PUSH1 0x1 DUP2 SLOAD ADD DUP1 DUP3 SSTORE DUP1 SWAP2 POP POP PUSH1 0x1 SWAP1 SUB SWAP1 PUSH0 MSTORE PUSH1 0x20 PUSH0 KECCAK256 ADD PUSH0 SWAP1 SWAP2 SWAP1 SWAP2 SWAP1 SWAP2 PUSH2 0x100 EXP DUP2 SLOAD DUP2 PUSH20 0xFFFFFFFFFFFFFFFFFFFFFFFFFFFFFFFFFFFFFFFF MUL NOT AND SWAP1 DUP4 PUSH20 0xFFFFFFFFFFFFFFFFFFFFFFFFFFFFFFFFFFFFFFFF AND MUL OR SWAP1 SSTORE POP POP JUMP JUMPDEST PUSH0 DUP5 DUP2 SLOAD DUP2 LT PUSH2 0x1AC JUMPI PUSH2 0x1AB PUSH2 0x726 JUMP JUMPDEST JUMPDEST SWAP1 PUSH0 MSTORE PUSH1 0x20 PUSH0 KECCAK256 ADD PUSH0 SWAP1 SLOAD SWAP1 PUSH2 0x100 EXP SWAP1 DIV PUSH20 0xFFFFFFFFFFFFFFFFFFFFFFFFFFFFFFFFFFFFFFFF AND PUSH20 0xFFFFFFFFFFFFFFFFFFFFFFFFFFFFFFFFFFFFFFFF AND PUSH4 0x94036FD5 DUP5 DUP5 DUP5 PUSH1 0x40 MLOAD DUP5 PUSH4 0xFFFFFFFF AND PUSH1 0xE0 SHL DUP2 MSTORE PUSH1 0x4 ADD PUSH2 0x210 SWAP4 SWAP3 SWAP2 SWAP1 PUSH2 0x7AA JUMP JUMPDEST PUSH0 PUSH1 0x40 MLOAD DUP1 DUP4 SUB DUP2 PUSH0 DUP8 DUP1 EXTCODESIZE ISZERO DUP1 ISZERO PUSH2 0x227 JUMPI PUSH0 DUP1 REVERT JUMPDEST POP GAS CALL ISZERO DUP1 ISZERO PUSH2 0x239 JUMPI RETURNDATASIZE PUSH0 DUP1 RETURNDATACOPY RETURNDATASIZE PUSH0 REVERT JUMPDEST POP POP POP POP POP POP POP POP JUMP JUMPDEST PUSH2 0x24B PUSH2 0x315 JUMP JUMPDEST PUSH0 DUP4 DUP2 SLOAD DUP2 LT PUSH2 0x25E JUMPI PUSH2 0x25D PUSH2 0x726 JUMP JUMPDEST JUMPDEST SWAP1 PUSH0 MSTORE PUSH1 0x20 PUSH0 KECCAK256 ADD PUSH0 SWAP1 SLOAD SWAP1 PUSH2 0x100 EXP SWAP1 DIV PUSH20 0xFFFFFFFFFFFFFFFFFFFFFFFFFFFFFFFFFFFFFFFF AND PUSH20 0xFFFFFFFFFFFFFFFFFFFFFFFFFFFFFFFFFFFFFFFF AND PUSH4 0x642F9163 DUP4 PUSH1 0x40 MLOAD DUP3 PUSH4 0xFFFFFFFF AND PUSH1 0xE0 SHL DUP2 MSTORE PUSH1 0x4 ADD PUSH2 0x2BE SWAP2 SWAP1 PUSH2 0x7E6 JUMP JUMPDEST PUSH0 PUSH1 0x40 MLOAD DUP1 DUP4 SUB DUP2 DUP7 GAS STATICCALL ISZERO DUP1 ISZERO PUSH2 0x2D8 JUMPI RETURNDATASIZE PUSH0 DUP1 RETURNDATACOPY RETURNDATASIZE PUSH0 REVERT JUMPDEST POP POP POP POP PUSH1 0x40 MLOAD RETURNDATASIZE PUSH0 DUP3 RETURNDATACOPY RETURNDATASIZE PUSH1 0x1F NOT PUSH1 0x1F DUP3 ADD AND DUP3 ADD DUP1 PUSH1 0x40 MSTORE POP DUP2 ADD SWAP1 PUSH2 0x300 SWAP2 SWAP1 PUSH2 0x906 JUMP JUMPDEST SWAP1 POP SWAP3 SWAP2 POP POP JUMP JUMPDEST PUSH2 0x9D0 DUP1 PUSH2 0x94E DUP4 CODECOPY ADD SWAP1 JUMP JUMPDEST PUSH1 0x40 MLOAD DUP1 PUSH1 0x60 ADD PUSH1 0x40 MSTORE DUP1 PUSH1 0x60 DUP2 MSTORE PUSH1 0x20 ADD PUSH0 DUP2 MSTORE PUSH1 0x20 ADD PUSH0 DUP2 MSTORE POP SWAP1 JUMP JUMPDEST PUSH0 PUSH1 0x40 MLOAD SWAP1 POP SWAP1 JUMP JUMPDEST PUSH0 DUP1 REVERT JUMPDEST PUSH0 DUP1 REVERT JUMPDEST PUSH0 DUP2 SWAP1 POP SWAP2 SWAP1 POP JUMP JUMPDEST PUSH2 0x357 DUP2 PUSH2 0x345 JUMP JUMPDEST DUP2 EQ PUSH2 0x361 JUMPI PUSH0 DUP1 REVERT JUMPDEST POP JUMP JUMPDEST PUSH0 DUP2 CALLDATALOAD SWAP1 POP PUSH2 0x372 DUP2 PUSH2 0x34E JUMP JUMPDEST SWAP3 SWAP2 POP POP JUMP JUMPDEST PUSH0 PUSH1 0x20 DUP3 DUP5 SUB SLT ISZERO PUSH2 0x38D JUMPI PUSH2 0x38C PUSH2 0x33D JUMP JUMPDEST JUMPDEST PUSH0 PUSH2 0x39A DUP5 DUP3 DUP6 ADD PUSH2 0x364 JUMP JUMPDEST SWAP2 POP POP SWAP3 SWAP2 POP POP JUMP JUMPDEST PUSH0 PUSH20 0xFFFFFFFFFFFFFFFFFFFFFFFFFFFFFFFFFFFFFFFF DUP3 AND SWAP1 POP SWAP2 SWAP1 POP JUMP JUMPDEST PUSH0 DUP2 SWAP1 POP SWAP2 SWAP1 POP JUMP JUMPDEST PUSH0 PUSH2 0x3E5 PUSH2 0x3E0 PUSH2 0x3DB DUP5 PUSH2 0x3A3 JUMP JUMPDEST PUSH2 0x3C2 JUMP JUMPDEST PUSH2 0x3A3 JUMP JUMPDEST SWAP1 POP SWAP2 SWAP1 POP JUMP JUMPDEST PUSH0 PUSH2 0x3F6 DUP3 PUSH2 0x3CB JUMP JUMPDEST SWAP1 POP SWAP2 SWAP1 POP JUMP JUMPDEST PUSH0 PUSH2 0x407 DUP3 PUSH2 0x3EC JUMP JUMPDEST SWAP1 POP SWAP2 SWAP1 POP JUMP JUMPDEST PUSH2 0x417 DUP2 PUSH2 0x3FD JUMP JUMPDEST DUP3 MSTORE POP POP JUMP JUMPDEST PUSH0 PUSH1 0x20 DUP3 ADD SWAP1 POP PUSH2 0x430 PUSH0 DUP4 ADD DUP5 PUSH2 0x40E JUMP JUMPDEST SWAP3 SWAP2 POP POP JUMP JUMPDEST PUSH0 DUP1 REVERT JUMPDEST PUSH0 DUP1 REVERT JUMPDEST PUSH0 PUSH1 0x1F NOT PUSH1 0x1F DUP4 ADD AND SWAP1 POP SWAP2 SWAP1 POP JUMP JUMPDEST PUSH32 0x4E487B7100000000000000000000000000000000000000000000000000000000 PUSH0 MSTORE PUSH1 0x41 PUSH1 0x4 MSTORE PUSH1 0x24 PUSH0 REVERT JUMPDEST PUSH2 0x484 DUP3 PUSH2 0x43E JUMP JUMPDEST DUP2 ADD DUP2 DUP2 LT PUSH8 0xFFFFFFFFFFFFFFFF DUP3 GT OR ISZERO PUSH2 0x4A3 JUMPI PUSH2 0x4A2 PUSH2 0x44E JUMP JUMPDEST JUMPDEST DUP1 PUSH1 0x40 MSTORE POP POP POP JUMP JUMPDEST PUSH0 PUSH2 0x4B5 PUSH2 0x334 JUMP JUMPDEST SWAP1 POP PUSH2 0x4C1 DUP3 DUP3 PUSH2 0x47B JUMP JUMPDEST SWAP2 SWAP1 POP JUMP JUMPDEST PUSH0 PUSH8 0xFFFFFFFFFFFFFFFF DUP3 GT ISZERO PUSH2 0x4E0 JUMPI PUSH2 0x4DF PUSH2 0x44E JUMP JUMPDEST JUMPDEST PUSH2 0x4E9 DUP3 PUSH2 0x43E JUMP JUMPDEST SWAP1 POP PUSH1 0x20 DUP2 ADD SWAP1 POP SWAP2 SWAP1 POP JUMP JUMPDEST DUP3 DUP2 DUP4 CALLDATACOPY PUSH0 DUP4 DUP4 ADD MSTORE POP POP POP JUMP JUMPDEST PUSH0 PUSH2 0x516 PUSH2 0x511 DUP5 PUSH2 0x4C6 JUMP JUMPDEST PUSH2 0x4AC JUMP JUMPDEST SWAP1 POP DUP3 DUP2 MSTORE PUSH1 0x20 DUP2 ADD DUP5 DUP5 DUP5 ADD GT ISZERO PUSH2 0x532 JUMPI PUSH2 0x531 PUSH2 0x43A JUMP JUMPDEST JUMPDEST PUSH2 0x53D DUP5 DUP3 DUP6 PUSH2 0x4F6 JUMP JUMPDEST POP SWAP4 SWAP3 POP POP POP JUMP JUMPDEST PUSH0 DUP3 PUSH1 0x1F DUP4 ADD SLT PUSH2 0x559 JUMPI PUSH2 0x558 PUSH2 0x436 JUMP JUMPDEST JUMPDEST DUP2 CALLDATALOAD PUSH2 0x569 DUP5 DUP3 PUSH1 0x20 DUP7 ADD PUSH2 0x504 JUMP JUMPDEST SWAP2 POP POP SWAP3 SWAP2 POP POP JUMP JUMPDEST PUSH0 DUP1 PUSH0 DUP1 PUSH1 0x80 DUP6 DUP8 SUB SLT ISZERO PUSH2 0x58A JUMPI PUSH2 0x589 PUSH2 0x33D JUMP JUMPDEST JUMPDEST PUSH0 PUSH2 0x597 DUP8 DUP3 DUP9 ADD PUSH2 0x364 JUMP JUMPDEST SWAP5 POP POP PUSH1 0x20 DUP6 ADD CALLDATALOAD PUSH8 0xFFFFFFFFFFFFFFFF DUP2 GT ISZERO PUSH2 0x5B8 JUMPI PUSH2 0x5B7 PUSH2 0x341 JUMP JUMPDEST JUMPDEST PUSH2 0x5C4 DUP8 DUP3 DUP9 ADD PUSH2 0x545 JUMP JUMPDEST SWAP4 POP POP PUSH1 0x40 PUSH2 0x5D5 DUP8 DUP3 DUP9 ADD PUSH2 0x364 JUMP JUMPDEST SWAP3 POP POP PUSH1 0x60 PUSH2 0x5E6 DUP8 DUP3 DUP9 ADD PUSH2 0x364 JUMP JUMPDEST SWAP2 POP POP SWAP3 SWAP6 SWAP2 SWAP5 POP SWAP3 POP JUMP JUMPDEST PUSH0 DUP1 PUSH1 0x40 DUP4 DUP6 SUB SLT ISZERO PUSH2 0x608 JUMPI PUSH2 0x607 PUSH2 0x33D JUMP JUMPDEST JUMPDEST PUSH0 PUSH2 0x615 DUP6 DUP3 DUP7 ADD PUSH2 0x364 JUMP JUMPDEST SWAP3 POP POP PUSH1 0x20 PUSH2 0x626 DUP6 DUP3 DUP7 ADD PUSH2 0x364 JUMP JUMPDEST SWAP2 POP POP SWAP3 POP SWAP3 SWAP1 POP JUMP JUMPDEST PUSH0 DUP2 MLOAD SWAP1 POP SWAP2 SWAP1 POP JUMP JUMPDEST PUSH0 DUP3 DUP3 MSTORE PUSH1 0x20 DUP3 ADD SWAP1 POP SWAP3 SWAP2 POP POP JUMP JUMPDEST PUSH0 JUMPDEST DUP4 DUP2 LT ISZERO PUSH2 0x667 JUMPI DUP1 DUP3 ADD MLOAD DUP2 DUP5 ADD MSTORE PUSH1 0x20 DUP2 ADD SWAP1 POP PUSH2 0x64C JUMP JUMPDEST PUSH0 DUP5 DUP5 ADD MSTORE POP POP POP POP JUMP JUMPDEST PUSH0 PUSH2 0x67C DUP3 PUSH2 0x630 JUMP JUMPDEST PUSH2 0x686 DUP2 DUP6 PUSH2 0x63A JUMP JUMPDEST SWAP4 POP PUSH2 0x696 DUP2 DUP6 PUSH1 0x20 DUP7 ADD PUSH2 0x64A JUMP JUMPDEST PUSH2 0x69F DUP2 PUSH2 0x43E JUMP JUMPDEST DUP5 ADD SWAP2 POP POP SWAP3 SWAP2 POP POP JUMP JUMPDEST PUSH2 0x6B3 DUP2 PUSH2 0x345 JUMP JUMPDEST DUP3 MSTORE POP POP JUMP JUMPDEST PUSH0 PUSH1 0x60 DUP4 ADD PUSH0 DUP4 ADD MLOAD DUP5 DUP3 SUB PUSH0 DUP7 ADD MSTORE PUSH2 0x6D3 DUP3 DUP3 PUSH2 0x672 JUMP JUMPDEST SWAP2 POP POP PUSH1 0x20 DUP4 ADD MLOAD PUSH2 0x6E8 PUSH1 0x20 DUP7 ADD DUP3 PUSH2 0x6AA JUMP JUMPDEST POP PUSH1 0x40 DUP4 ADD MLOAD PUSH2 0x6FB PUSH1 0x40 DUP7 ADD DUP3 PUSH2 0x6AA JUMP JUMPDEST POP DUP1 SWAP2 POP POP SWAP3 SWAP2 POP POP JUMP JUMPDEST PUSH0 PUSH1 0x20 DUP3 ADD SWAP1 POP DUP2 DUP2 SUB PUSH0 DUP4 ADD MSTORE PUSH2 0x71E DUP2 DUP5 PUSH2 0x6B9 JUMP JUMPDEST SWAP1 POP SWAP3 SWAP2 POP POP JUMP JUMPDEST PUSH32 0x4E487B7100000000000000000000000000000000000000000000000000000000 PUSH0 MSTORE PUSH1 0x32 PUSH1 0x4 MSTORE PUSH1 0x24 PUSH0 REVERT JUMPDEST PUSH0 DUP3 DUP3 MSTORE PUSH1 0x20 DUP3 ADD SWAP1 POP SWAP3 SWAP2 POP POP JUMP JUMPDEST PUSH0 PUSH2 0x76D DUP3 PUSH2 0x630 JUMP JUMPDEST PUSH2 0x777 DUP2 DUP6 PUSH2 0x753 JUMP JUMPDEST SWAP4 POP PUSH2 0x787 DUP2 DUP6 PUSH1 0x20 DUP7 ADD PUSH2 0x64A JUMP JUMPDEST PUSH2 0x790 DUP2 PUSH2 0x43E JUMP JUMPDEST DUP5 ADD SWAP2 POP POP SWAP3 SWAP2 POP POP JUMP JUMPDEST PUSH2 0x7A4 DUP2 PUSH2 0x345 JUMP JUMPDEST DUP3 MSTORE POP POP JUMP JUMPDEST PUSH0 PUSH1 0x60 DUP3 ADD SWAP1 POP DUP2 DUP2 SUB PUSH0 DUP4 ADD MSTORE PUSH2 0x7C2 DUP2 DUP7 PUSH2 0x763 JUMP JUMPDEST SWAP1 POP PUSH2 0x7D1 PUSH1 0x20 DUP4 ADD DUP6 PUSH2 0x79B JUMP JUMPDEST PUSH2 0x7DE PUSH1 0x40 DUP4 ADD DUP5 PUSH2 0x79B JUMP JUMPDEST SWAP5 SWAP4 POP POP POP POP JUMP JUMPDEST PUSH0 PUSH1 0x20 DUP3 ADD SWAP1 POP PUSH2 0x7F9 PUSH0 DUP4 ADD DUP5 PUSH2 0x79B JUMP JUMPDEST SWAP3 SWAP2 POP POP JUMP JUMPDEST PUSH0 DUP1 REVERT JUMPDEST PUSH0 DUP1 REVERT JUMPDEST PUSH0 PUSH2 0x819 PUSH2 0x814 DUP5 PUSH2 0x4C6 JUMP JUMPDEST PUSH2 0x4AC JUMP JUMPDEST SWAP1 POP DUP3 DUP2 MSTORE PUSH1 0x20 DUP2 ADD DUP5 DUP5 DUP5 ADD GT ISZERO PUSH2 0x835 JUMPI PUSH2 0x834 PUSH2 0x43A JUMP JUMPDEST JUMPDEST PUSH2 0x840 DUP5 DUP3 DUP6 PUSH2 0x64A JUMP JUMPDEST POP SWAP4 SWAP3 POP POP POP JUMP JUMPDEST PUSH0 DUP3 PUSH1 0x1F DUP4 ADD SLT PUSH2 0x85C JUMPI PUSH2 0x85B PUSH2 0x436 JUMP JUMPDEST JUMPDEST DUP2 MLOAD PUSH2 0x86C DUP5 DUP3 PUSH1 0x20 DUP7 ADD PUSH2 0x807 JUMP JUMPDEST SWAP2 POP POP SWAP3 SWAP2 POP POP JUMP JUMPDEST PUSH0 DUP2 MLOAD SWAP1 POP PUSH2 0x883 DUP2 PUSH2 0x34E JUMP JUMPDEST SWAP3 SWAP2 POP POP JUMP JUMPDEST PUSH0 PUSH1 0x60 DUP3 DUP5 SUB SLT ISZERO PUSH2 0x89E JUMPI PUSH2 0x89D PUSH2 0x7FF JUMP JUMPDEST JUMPDEST PUSH2 0x8A8 PUSH1 0x60 PUSH2 0x4AC JUMP JUMPDEST SWAP1 POP PUSH0 DUP3 ADD MLOAD PUSH8 0xFFFFFFFFFFFFFFFF DUP2 GT ISZERO PUSH2 0x8C7 JUMPI PUSH2 0x8C6 PUSH2 0x803 JUMP JUMPDEST JUMPDEST PUSH2 0x8D3 DUP5 DUP3 DUP6 ADD PUSH2 0x848 JUMP JUMPDEST PUSH0 DUP4 ADD MSTORE POP PUSH1 0x20 PUSH2 0x8E6 DUP5 DUP3 DUP6 ADD PUSH2 0x875 JUMP JUMPDEST PUSH1 0x20 DUP4 ADD MSTORE POP PUSH1 0x40 PUSH2 0x8FA DUP5 DUP3 DUP6 ADD PUSH2 0x875 JUMP JUMPDEST PUSH1 0x40 DUP4 ADD MSTORE POP SWAP3 SWAP2 POP POP JUMP JUMPDEST PUSH0 PUSH1 0x20 DUP3 DUP5 SUB SLT ISZERO PUSH2 0x91B JUMPI PUSH2 0x91A PUSH2 0x33D JUMP JUMPDEST JUMPDEST PUSH0 DUP3 ADD MLOAD PUSH8 0xFFFFFFFFFFFFFFFF DUP2 GT ISZERO PUSH2 0x938 JUMPI PUSH2 0x937 PUSH2 0x341 JUMP JUMPDEST JUMPDEST PUSH2 0x944 DUP5 DUP3 DUP6 ADD PUSH2 0x889 JUMP JUMPDEST SWAP2 POP POP SWAP3 SWAP2 POP POP JUMP INVALID PUSH1 0x80 PUSH1 0x40 MSTORE CALLVALUE DUP1 ISZERO PUSH2 0xF JUMPI PUSH0 DUP1 REVERT JUMPDEST POP PUSH2 0x9B3 DUP1 PUSH2 0x1D PUSH0 CODECOPY PUSH0 RETURN INVALID PUSH1 0x80 PUSH1 0x40 MSTORE CALLVALUE DUP1 ISZERO PUSH2 0xF JUMPI PUSH0 DUP1 REVERT JUMPDEST POP PUSH1 0x4 CALLDATASIZE LT PUSH2 0x3F JUMPI PUSH0 CALLDATALOAD PUSH1 0xE0 SHR DUP1 PUSH4 0x6EAD22E EQ PUSH2 0x43 JUMPI DUP1 PUSH4 0x642F9163 EQ PUSH2 0x75 JUMPI DUP1 PUSH4 0x94036FD5 EQ PUSH2 0xA5 JUMPI JUMPDEST PUSH0 DUP1 REVERT JUMPDEST PUSH2 0x5D PUSH1 0x4 DUP1 CALLDATASIZE SUB DUP2 ADD SWAP1 PUSH2 0x58 SWAP2 SWAP1 PUSH2 0x32B JUMP JUMPDEST PUSH2 0xC1 JUMP JUMPDEST PUSH1 0x40 MLOAD PUSH2 0x6C SWAP4 SWAP3 SWAP2 SWAP1 PUSH2 0x3EF JUMP JUMPDEST PUSH1 0x40 MLOAD DUP1 SWAP2 SUB SWAP1 RETURN JUMPDEST PUSH2 0x8F PUSH1 0x4 DUP1 CALLDATASIZE SUB DUP2 ADD SWAP1 PUSH2 0x8A SWAP2 SWAP1 PUSH2 0x32B JUMP JUMPDEST PUSH2 0x17B JUMP JUMPDEST PUSH1 0x40 MLOAD PUSH2 0x9C SWAP2 SWAP1 PUSH2 0x4CF JUMP JUMPDEST PUSH1 0x40 MLOAD DUP1 SWAP2 SUB SWAP1 RETURN JUMPDEST PUSH2 0xBF PUSH1 0x4 DUP1 CALLDATASIZE SUB DUP2 ADD SWAP1 PUSH2 0xBA SWAP2 SWAP1 PUSH2 0x61B JUMP JUMPDEST PUSH2 0x257 JUMP JUMPDEST STOP JUMPDEST PUSH0 DUP2 DUP2 SLOAD DUP2 LT PUSH2 0xCF JUMPI PUSH0 DUP1 REVERT JUMPDEST SWAP1 PUSH0 MSTORE PUSH1 0x20 PUSH0 KECCAK256 SWAP1 PUSH1 0x3 MUL ADD PUSH0 SWAP2 POP SWAP1 POP DUP1 PUSH0 ADD DUP1 SLOAD PUSH2 0xEE SWAP1 PUSH2 0x6B4 JUMP JUMPDEST DUP1 PUSH1 0x1F ADD PUSH1 0x20 DUP1 SWAP2 DIV MUL PUSH1 0x20 ADD PUSH1 0x40 MLOAD SWAP1 DUP2 ADD PUSH1 0x40 MSTORE DUP1 SWAP3 SWAP2 SWAP1 DUP2 DUP2 MSTORE PUSH1 0x20 ADD DUP3 DUP1 SLOAD PUSH2 0x11A SWAP1 PUSH2 0x6B4 JUMP JUMPDEST DUP1 ISZERO PUSH2 0x165 JUMPI DUP1 PUSH1 0x1F LT PUSH2 0x13C JUMPI PUSH2 0x100 DUP1 DUP4 SLOAD DIV MUL DUP4 MSTORE SWAP2 PUSH1 0x20 ADD SWAP2 PUSH2 0x165 JUMP JUMPDEST DUP3 ADD SWAP2 SWAP1 PUSH0 MSTORE PUSH1 0x20 PUSH0 KECCAK256 SWAP1 JUMPDEST DUP2 SLOAD DUP2 MSTORE SWAP1 PUSH1 0x1 ADD SWAP1 PUSH1 0x20 ADD DUP1 DUP4 GT PUSH2 0x148 JUMPI DUP3 SWAP1 SUB PUSH1 0x1F AND DUP3 ADD SWAP2 JUMPDEST POP POP POP POP POP SWAP1 DUP1 PUSH1 0x1 ADD SLOAD SWAP1 DUP1 PUSH1 0x2 ADD SLOAD SWAP1 POP DUP4 JUMP JUMPDEST PUSH2 0x183 PUSH2 0x2C8 JUMP JUMPDEST PUSH0 DUP3 DUP2 SLOAD DUP2 LT PUSH2 0x196 JUMPI PUSH2 0x195 PUSH2 0x6E4 JUMP JUMPDEST JUMPDEST SWAP1 PUSH0 MSTORE PUSH1 0x20 PUSH0 KECCAK256 SWAP1 PUSH1 0x3 MUL ADD PUSH1 0x40 MLOAD DUP1 PUSH1 0x60 ADD PUSH1 0x40 MSTORE SWAP1 DUP2 PUSH0 DUP3 ADD DUP1 SLOAD PUSH2 0x1BC SWAP1 PUSH2 0x6B4 JUMP JUMPDEST DUP1 PUSH1 0x1F ADD PUSH1 0x20 DUP1 SWAP2 DIV MUL PUSH1 0x20 ADD PUSH1 0x40 MLOAD SWAP1 DUP2 ADD PUSH1 0x40 MSTORE DUP1 SWAP3 SWAP2 SWAP1 DUP2 DUP2 MSTORE PUSH1 0x20 ADD DUP3 DUP1 SLOAD PUSH2 0x1E8 SWAP1 PUSH2 0x6B4 JUMP JUMPDEST DUP1 ISZERO PUSH2 0x233 JUMPI DUP1 PUSH1 0x1F LT PUSH2 0x20A JUMPI PUSH2 0x100 DUP1 DUP4 SLOAD DIV MUL DUP4 MSTORE SWAP2 PUSH1 0x20 ADD SWAP2 PUSH2 0x233 JUMP JUMPDEST DUP3 ADD SWAP2 SWAP1 PUSH0 MSTORE PUSH1 0x20 PUSH0 KECCAK256 SWAP1 JUMPDEST DUP2 SLOAD DUP2 MSTORE SWAP1 PUSH1 0x1 ADD SWAP1 PUSH1 0x20 ADD DUP1 DUP4 GT PUSH2 0x216 JUMPI DUP3 SWAP1 SUB PUSH1 0x1F AND DUP3 ADD SWAP2 JUMPDEST POP POP POP POP POP DUP2 MSTORE PUSH1 0x20 ADD PUSH1 0x1 DUP3 ADD SLOAD DUP2 MSTORE PUSH1 0x20 ADD PUSH1 0x2 DUP3 ADD SLOAD DUP2 MSTORE POP POP SWAP1 POP SWAP2 SWAP1 POP JUMP JUMPDEST PUSH0 PUSH1 0x40 MLOAD DUP1 PUSH1 0x60 ADD PUSH1 0x40 MSTORE DUP1 DUP6 DUP2 MSTORE PUSH1 0x20 ADD DUP5 DUP2 MSTORE PUSH1 0x20 ADD DUP4 DUP2 MSTORE POP SWAP1 DUP1 PUSH1 0x1 DUP2 SLOAD ADD DUP1 DUP3 SSTORE DUP1 SWAP2 POP POP PUSH1 0x1 SWAP1 SUB SWAP1 PUSH0 MSTORE PUSH1 0x20 PUSH0 KECCAK256 SWAP1 PUSH1 0x3 MUL ADD PUSH0 SWAP1 SWAP2 SWAP1 SWAP2 SWAP1 SWAP2 POP PUSH0 DUP3 ADD MLOAD DUP2 PUSH0 ADD SWAP1 DUP2 PUSH2 0x2AC SWAP2 SWAP1 PUSH2 0x8AE JUMP JUMPDEST POP PUSH1 0x20 DUP3 ADD MLOAD DUP2 PUSH1 0x1 ADD SSTORE PUSH1 0x40 DUP3 ADD MLOAD DUP2 PUSH1 0x2 ADD SSTORE POP POP POP POP POP JUMP JUMPDEST PUSH1 0x40 MLOAD DUP1 PUSH1 0x60 ADD PUSH1 0x40 MSTORE DUP1 PUSH1 0x60 DUP2 MSTORE PUSH1 0x20 ADD PUSH0 DUP2 MSTORE PUSH1 0x20 ADD PUSH0 DUP2 MSTORE POP SWAP1 JUMP JUMPDEST PUSH0 PUSH1 0x40 MLOAD SWAP1 POP SWAP1 JUMP JUMPDEST PUSH0 DUP1 REVERT JUMPDEST PUSH0 DUP1 REVERT JUMPDEST PUSH0 DUP2 SWAP1 POP SWAP2 SWAP1 POP JUMP JUMPDEST PUSH2 0x30A DUP2 PUSH2 0x2F8 JUMP JUMPDEST DUP2 EQ PUSH2 0x314 JUMPI PUSH0 DUP1 REVERT JUMPDEST POP JUMP JUMPDEST PUSH0 DUP2 CALLDATALOAD SWAP1 POP PUSH2 0x325 DUP2 PUSH2 0x301 JUMP JUMPDEST SWAP3 SWAP2 POP POP JUMP JUMPDEST PUSH0 PUSH1 0x20 DUP3 DUP5 SUB SLT ISZERO PUSH2 0x340 JUMPI PUSH2 0x33F PUSH2 0x2F0 JUMP JUMPDEST JUMPDEST PUSH0 PUSH2 0x34D DUP5 DUP3 DUP6 ADD PUSH2 0x317 JUMP JUMPDEST SWAP2 POP POP SWAP3 SWAP2 POP POP JUMP JUMPDEST PUSH0 DUP2 MLOAD SWAP1 POP SWAP2 SWAP1 POP JUMP JUMPDEST PUSH0 DUP3 DUP3 MSTORE PUSH1 0x20 DUP3 ADD SWAP1 POP SWAP3 SWAP2 POP POP JUMP JUMPDEST PUSH0 JUMPDEST DUP4 DUP2 LT ISZERO PUSH2 0x38D JUMPI DUP1 DUP3 ADD MLOAD DUP2 DUP5 ADD MSTORE PUSH1 0x20 DUP2 ADD SWAP1 POP PUSH2 0x372 JUMP JUMPDEST PUSH0 DUP5 DUP5 ADD MSTORE POP POP POP POP JUMP JUMPDEST PUSH0 PUSH1 0x1F NOT PUSH1 0x1F DUP4 ADD AND SWAP1 POP SWAP2 SWAP1 POP JUMP JUMPDEST PUSH0 PUSH2 0x3B2 DUP3 PUSH2 0x356 JUMP JUMPDEST PUSH2 0x3BC DUP2 DUP6 PUSH2 0x360 JUMP JUMPDEST SWAP4 POP PUSH2 0x3CC DUP2 DUP6 PUSH1 0x20 DUP7 ADD PUSH2 0x370 JUMP JUMPDEST PUSH2 0x3D5 DUP2 PUSH2 0x398 JUMP JUMPDEST DUP5 ADD SWAP2 POP POP SWAP3 SWAP2 POP POP JUMP JUMPDEST PUSH2 0x3E9 DUP2 PUSH2 0x2F8 JUMP JUMPDEST DUP3 MSTORE POP POP JUMP JUMPDEST PUSH0 PUSH1 0x60 DUP3 ADD SWAP1 POP DUP2 DUP2 SUB PUSH0 DUP4 ADD MSTORE PUSH2 0x407 DUP2 DUP7 PUSH2 0x3A8 JUMP JUMPDEST SWAP1 POP PUSH2 0x416 PUSH1 0x20 DUP4 ADD DUP6 PUSH2 0x3E0 JUMP JUMPDEST PUSH2 0x423 PUSH1 0x40 DUP4 ADD DUP5 PUSH2 0x3E0 JUMP JUMPDEST SWAP5 SWAP4 POP POP POP POP JUMP JUMPDEST PUSH0 DUP3 DUP3 MSTORE PUSH1 0x20 DUP3 ADD SWAP1 POP SWAP3 SWAP2 POP POP JUMP JUMPDEST PUSH0 PUSH2 0x445 DUP3 PUSH2 0x356 JUMP JUMPDEST PUSH2 0x44F DUP2 DUP6 PUSH2 0x42B JUMP JUMPDEST SWAP4 POP PUSH2 0x45F DUP2 DUP6 PUSH1 0x20 DUP7 ADD PUSH2 0x370 JUMP JUMPDEST PUSH2 0x468 DUP2 PUSH2 0x398 JUMP JUMPDEST DUP5 ADD SWAP2 POP POP SWAP3 SWAP2 POP POP JUMP JUMPDEST PUSH2 0x47C DUP2 PUSH2 0x2F8 JUMP JUMPDEST DUP3 MSTORE POP POP JUMP JUMPDEST PUSH0 PUSH1 0x60 DUP4 ADD PUSH0 DUP4 ADD MLOAD DUP5 DUP3 SUB PUSH0 DUP7 ADD MSTORE PUSH2 0x49C DUP3 DUP3 PUSH2 0x43B JUMP JUMPDEST SWAP2 POP POP PUSH1 0x20 DUP4 ADD MLOAD PUSH2 0x4B1 PUSH1 0x20 DUP7 ADD DUP3 PUSH2 0x473 JUMP JUMPDEST POP PUSH1 0x40 DUP4 ADD MLOAD PUSH2 0x4C4 PUSH1 0x40 DUP7 ADD DUP3 PUSH2 0x473 JUMP JUMPDEST POP DUP1 SWAP2 POP POP SWAP3 SWAP2 POP POP JUMP JUMPDEST PUSH0 PUSH1 0x20 DUP3 ADD SWAP1 POP DUP2 DUP2 SUB PUSH0 DUP4 ADD MSTORE PUSH2 0x4E7 DUP2 DUP5 PUSH2 0x482 JUMP JUMPDEST SWAP1 POP SWAP3 SWAP2 POP POP JUMP JUMPDEST PUSH0 DUP1 REVERT JUMPDEST PUSH0 DUP1 REVERT JUMPDEST PUSH32 0x4E487B7100000000000000000000000000000000000000000000000000000000 PUSH0 MSTORE PUSH1 0x41 PUSH1 0x4 MSTORE PUSH1 0x24 PUSH0 REVERT JUMPDEST PUSH2 0x52D DUP3 PUSH2 0x398 JUMP JUMPDEST DUP2 ADD DUP2 DUP2 LT PUSH8 0xFFFFFFFFFFFFFFFF DUP3 GT OR ISZERO PUSH2 0x54C JUMPI PUSH2 0x54B PUSH2 0x4F7 JUMP JUMPDEST JUMPDEST DUP1 PUSH1 0x40 MSTORE POP POP POP JUMP JUMPDEST PUSH0 PUSH2 0x55E PUSH2 0x2E7 JUMP JUMPDEST SWAP1 POP PUSH2 0x56A DUP3 DUP3 PUSH2 0x524 JUMP JUMPDEST SWAP2 SWAP1 POP JUMP JUMPDEST PUSH0 PUSH8 0xFFFFFFFFFFFFFFFF DUP3 GT ISZERO PUSH2 0x589 JUMPI PUSH2 0x588 PUSH2 0x4F7 JUMP JUMPDEST JUMPDEST PUSH2 0x592 DUP3 PUSH2 0x398 JUMP JUMPDEST SWAP1 POP PUSH1 0x20 DUP2 ADD SWAP1 POP SWAP2 SWAP1 POP JUMP JUMPDEST DUP3 DUP2 DUP4 CALLDATACOPY PUSH0 DUP4 DUP4 ADD MSTORE POP POP POP JUMP JUMPDEST PUSH0 PUSH2 0x5BF PUSH2 0x5BA DUP5 PUSH2 0x56F JUMP JUMPDEST PUSH2 0x555 JUMP JUMPDEST SWAP1 POP DUP3 DUP2 MSTORE PUSH1 0x20 DUP2 ADD DUP5 DUP5 DUP5 ADD GT ISZERO PUSH2 0x5DB JUMPI PUSH2 0x5DA PUSH2 0x4F3 JUMP JUMPDEST JUMPDEST PUSH2 0x5E6 DUP5 DUP3 DUP6 PUSH2 0x59F JUMP JUMPDEST POP SWAP4 SWAP3 POP POP POP JUMP JUMPDEST PUSH0 DUP3 PUSH1 0x1F DUP4 ADD SLT PUSH2 0x602 JUMPI PUSH2 0x601 PUSH2 0x4EF JUMP JUMPDEST JUMPDEST DUP2 CALLDATALOAD PUSH2 0x612 DUP5 DUP3 PUSH1 0x20 DUP7 ADD PUSH2 0x5AD JUMP JUMPDEST SWAP2 POP POP SWAP3 SWAP2 POP POP JUMP JUMPDEST PUSH0 DUP1 PUSH0 PUSH1 0x60 DUP5 DUP7 SUB SLT ISZERO PUSH2 0x632 JUMPI PUSH2 0x631 PUSH2 0x2F0 JUMP JUMPDEST JUMPDEST PUSH0 DUP5 ADD CALLDATALOAD PUSH8 0xFFFFFFFFFFFFFFFF DUP2 GT ISZERO PUSH2 0x64F JUMPI PUSH2 0x64E PUSH2 0x2F4 JUMP JUMPDEST JUMPDEST PUSH2 0x65B DUP7 DUP3 DUP8 ADD PUSH2 0x5EE JUMP JUMPDEST SWAP4 POP POP PUSH1 0x20 PUSH2 0x66C DUP7 DUP3 DUP8 ADD PUSH2 0x317 JUMP JUMPDEST SWAP3 POP POP PUSH1 0x40 PUSH2 0x67D DUP7 DUP3 DUP8 ADD PUSH2 0x317 JUMP JUMPDEST SWAP2 POP POP SWAP3 POP SWAP3 POP SWAP3 JUMP JUMPDEST PUSH32 0x4E487B7100000000000000000000000000000000000000000000000000000000 PUSH0 MSTORE PUSH1 0x22 PUSH1 0x4 MSTORE PUSH1 0x24 PUSH0 REVERT JUMPDEST PUSH0 PUSH1 0x2 DUP3 DIV SWAP1 POP PUSH1 0x1 DUP3 AND DUP1 PUSH2 0x6CB JUMPI PUSH1 0x7F DUP3 AND SWAP2 POP JUMPDEST PUSH1 0x20 DUP3 LT DUP2 SUB PUSH2 0x6DE JUMPI PUSH2 0x6DD PUSH2 0x687 JUMP JUMPDEST JUMPDEST POP SWAP2 SWAP1 POP JUMP JUMPDEST PUSH32 0x4E487B7100000000000000000000000000000000000000000000000000000000 PUSH0 MSTORE PUSH1 0x32 PUSH1 0x4 MSTORE PUSH1 0x24 PUSH0 REVERT JUMPDEST PUSH0 DUP2 SWAP1 POP DUP2 PUSH0 MSTORE PUSH1 0x20 PUSH0 KECCAK256 SWAP1 POP SWAP2 SWAP1 POP JUMP JUMPDEST PUSH0 PUSH1 0x20 PUSH1 0x1F DUP4 ADD DIV SWAP1 POP SWAP2 SWAP1 POP JUMP JUMPDEST PUSH0 DUP3 DUP3 SHL SWAP1 POP SWAP3 SWAP2 POP POP JUMP JUMPDEST PUSH0 PUSH1 0x8 DUP4 MUL PUSH2 0x76D PUSH32 0xFFFFFFFFFFFFFFFFFFFFFFFFFFFFFFFFFFFFFFFFFFFFFFFFFFFFFFFFFFFFFFFF DUP3 PUSH2 0x732 JUMP JUMPDEST PUSH2 0x777 DUP7 DUP4 PUSH2 0x732 JUMP JUMPDEST SWAP6 POP DUP1 NOT DUP5 AND SWAP4 POP DUP1 DUP7 AND DUP5 OR SWAP3 POP POP POP SWAP4 SWAP3 POP POP POP JUMP JUMPDEST PUSH0 DUP2 SWAP1 POP SWAP2 SWAP1 POP JUMP JUMPDEST PUSH0 PUSH2 0x7B2 PUSH2 0x7AD PUSH2 0x7A8 DUP5 PUSH2 0x2F8 JUMP JUMPDEST PUSH2 0x78F JUMP JUMPDEST PUSH2 0x2F8 JUMP JUMPDEST SWAP1 POP SWAP2 SWAP1 POP JUMP JUMPDEST PUSH0 DUP2 SWAP1 POP SWAP2 SWAP1 POP JUMP JUMPDEST PUSH2 0x7CB DUP4 PUSH2 0x798 JUMP JUMPDEST PUSH2 0x7DF PUSH2 0x7D7 DUP3 PUSH2 0x7B9 JUMP JUMPDEST DUP5 DUP5 SLOAD PUSH2 0x73E JUMP JUMPDEST DUP3 SSTORE POP POP POP POP JUMP JUMPDEST PUSH0 SWAP1 JUMP JUMPDEST PUSH2 0x7F3 PUSH2 0x7E7 JUMP JUMPDEST PUSH2 0x7FE DUP2 DUP5 DUP5 PUSH2 0x7C2 JUMP JUMPDEST POP POP POP JUMP JUMPDEST JUMPDEST DUP2 DUP2 LT ISZERO PUSH2 0x821 JUMPI PUSH2 0x816 PUSH0 DUP3 PUSH2 0x7EB JUMP JUMPDEST PUSH1 0x1 DUP2 ADD SWAP1 POP PUSH2 0x804 JUMP JUMPDEST POP POP JUMP JUMPDEST PUSH1 0x1F DUP3 GT ISZERO PUSH2 0x866 JUMPI PUSH2 0x837 DUP2 PUSH2 0x711 JUMP JUMPDEST PUSH2 0x840 DUP5 PUSH2 0x723 JUMP JUMPDEST DUP2 ADD PUSH1 0x20 DUP6 LT ISZERO PUSH2 0x84F JUMPI DUP2 SWAP1 POP JUMPDEST PUSH2 0x863 PUSH2 0x85B DUP6 PUSH2 0x723 JUMP JUMPDEST DUP4 ADD DUP3 PUSH2 0x803 JUMP JUMPDEST POP POP JUMPDEST POP POP POP JUMP JUMPDEST PUSH0 DUP3 DUP3 SHR SWAP1 POP SWAP3 SWAP2 POP POP JUMP JUMPDEST PUSH0 PUSH2 0x886 PUSH0 NOT DUP5 PUSH1 0x8 MUL PUSH2 0x86B JUMP JUMPDEST NOT DUP1 DUP4 AND SWAP2 POP POP SWAP3 SWAP2 POP POP JUMP JUMPDEST PUSH0 PUSH2 0x89E DUP4 DUP4 PUSH2 0x877 JUMP JUMPDEST SWAP2 POP DUP3 PUSH1 0x2 MUL DUP3 OR SWAP1 POP SWAP3 SWAP2 POP POP JUMP JUMPDEST PUSH2 0x8B7 DUP3 PUSH2 0x356 JUMP JUMPDEST PUSH8 0xFFFFFFFFFFFFFFFF DUP2 GT ISZERO PUSH2 0x8D0 JUMPI PUSH2 0x8CF PUSH2 0x4F7 JUMP JUMPDEST JUMPDEST PUSH2 0x8DA DUP3 SLOAD PUSH2 0x6B4 JUMP JUMPDEST PUSH2 0x8E5 DUP3 DUP3 DUP6 PUSH2 0x825 JUMP JUMPDEST PUSH0 PUSH1 0x20 SWAP1 POP PUSH1 0x1F DUP4 GT PUSH1 0x1 DUP2 EQ PUSH2 0x916 JUMPI PUSH0 DUP5 ISZERO PUSH2 0x904 JUMPI DUP3 DUP8 ADD MLOAD SWAP1 POP JUMPDEST PUSH2 0x90E DUP6 DUP3 PUSH2 0x893 JUMP JUMPDEST DUP7 SSTORE POP PUSH2 0x975 JUMP JUMPDEST PUSH1 0x1F NOT DUP5 AND PUSH2 0x924 DUP7 PUSH2 0x711 JUMP JUMPDEST PUSH0 JUMPDEST DUP3 DUP2 LT ISZERO PUSH2 0x94B JUMPI DUP5 DUP10 ADD MLOAD DUP3 SSTORE PUSH1 0x1 DUP3 ADD SWAP2 POP PUSH1 0x20 DUP6 ADD SWAP5 POP PUSH1 0x20 DUP2 ADD SWAP1 POP PUSH2 0x926 JUMP JUMPDEST DUP7 DUP4 LT ISZERO PUSH2 0x968 JUMPI DUP5 DUP10 ADD MLOAD PUSH2 0x964 PUSH1 0x1F DUP10 AND DUP3 PUSH2 0x877 JUMP JUMPDEST DUP4 SSTORE POP JUMPDEST PUSH1 0x1 PUSH1 0x2 DUP9 MUL ADD DUP9 SSTORE POP POP POP JUMPDEST POP POP POP POP POP POP JUMP INVALID LOG2 PUSH5 0x6970667358 0x22 SLT KECCAK256 LOG1 0xB4 DIV SMOD BALANCE INVALID COINBASE SWAP15 0xC5 JUMPDEST SWAP15 0xF8 0xDC JUMPDEST KECCAK256 0xAF 0x2B JUMPI 0xA8 PUSH11 0xF139B237668DEF5E354F52 MSIZE PUSH5 0x736F6C6343 STOP ADDMOD XOR STOP CALLER LOG2 PUSH5 0x6970667358 0x22 SLT KECCAK256 0xF7 0x1F CALLDATALOAD SMOD 0xCC TIMESTAMP 0x2B SELFDESTRUCT 0xD5 0x2F DUP14 0x25 0xE1 DUP6 PUSH17 0x3AB09294D786D5BDA26DAA4FF67F69A18A PUSH5 0x736F6C6343 STOP ADDMOD XOR STOP CALLER "
		},
		"gasEstimates": {
			"creation": {
				"codeDepositCost": "989400",
				"executionCost": "1025",
				"totalCost": "990425"
			},
			"external": {
				"addNewClassRoom()": "infinite",
				"addNewStudentClassRoom(uint256,string,uint256,uint256)": "infinite",
				"classrooms(uint256)": "infinite",
				"getStudentClassRoom(uint256,uint256)": "infinite"
			}
		},
		"methodIdentifiers": {
			"addNewClassRoom()": "290c6a73",
			"addNewStudentClassRoom(uint256,string,uint256,uint256)": "363b869f",
			"classrooms(uint256)": "086eafae",
			"getStudentClassRoom(uint256,uint256)": "78e83526"
		}
	},
	"abi": [
		{
			"inputs": [],
			"name": "addNewClassRoom",
			"outputs": [],
			"stateMutability": "nonpayable",
			"type": "function"
		},
		{
			"inputs": [
				{
					"internalType": "uint256",
					"name": "_indexClassRoom",
					"type": "uint256"
				},
				{
					"internalType": "string",
					"name": "_name",
					"type": "string"
				},
				{
					"internalType": "uint256",
					"name": "_age",
					"type": "uint256"
				},
				{
					"internalType": "uint256",
					"name": "_finalMark",
					"type": "uint256"
				}
			],
			"name": "addNewStudentClassRoom",
			"outputs": [],
			"stateMutability": "nonpayable",
			"type": "function"
		},
		{
			"inputs": [
				{
					"internalType": "uint256",
					"name": "",
					"type": "uint256"
				}
			],
			"name": "classrooms",
			"outputs": [
				{
					"internalType": "contract Classroom",
					"name": "",
					"type": "address"
				}
			],
			"stateMutability": "view",
			"type": "function"
		},
		{
			"inputs": [
				{
					"internalType": "uint256",
					"name": "_indexClassRoom",
					"type": "uint256"
				},
				{
					"internalType": "uint256",
					"name": "_indexStudent",
					"type": "uint256"
				}
			],
			"name": "getStudentClassRoom",
			"outputs": [
				{
					"components": [
						{
							"internalType": "string",
							"name": "name",
							"type": "string"
						},
						{
							"internalType": "uint256",
							"name": "age",
							"type": "uint256"
						},
						{
							"internalType": "uint256",
							"name": "finalMark",
							"type": "uint256"
						}
					],
					"internalType": "struct Classroom.Student",
					"name": "",
					"type": "tuple"
				}
			],
			"stateMutability": "view",
			"type": "function"
		}
	]
}